:020000040800F2
:10000000988F0020610200087D3C00083738000806
:10001000793C00089B040008195200080000000009
:10002000000000000000000000000000A101000826
:10003000B90D000800000000FD010008D9490008C2
:100040007B0200087B0200087B0200087B0200089C
:100050007B0200087B0200087B0200087B0200088C
:100060007B0200087B020008790E00087B02000872
:10007000210C00087B0200087B0200087B020008BC
:100080007B0200087B0200087B0200087B0200085C
:100090007D0500087B0200087B020008830E000833
:1000A0007B020008D54A00087B0200087B0200089A
:1000B0007B0200087B0200087B0200087B0200082C
:1000C0007B0200087B0200087B0200087B0200081C
:1000D0007B0200087B0200087B020008F151000847
:1000E0007B0200087B0200087B0200087B020008FC
:1000F0007B0200087B0200087B0200087B020008EC
:100100007B0200087B0200087B0200087B020008DB
:100110007B0200087B0200087B0200087B020008CB
:10012000310C0008410C00087B020008510C00084B
:100130007B0200087B0200087B0200087B020008AB
:10014000490800087B0200087B0200087B020008C7
:100150007B020008610C00087B02000805520008C1
:100160007B0200087B0200087B0200087B0200087B
:100170007B0200087B0200087B02000800000000F0
:100180007B0200087B020008DFF810D000F006F9BF
:100190000048004705580008AFF30080988F002002
:1001A0002C4B19680868B0E8F04F80F30988BFF35A
:1001B0006F8F4FF0000080F311887047000000003F
:1001C00008480068006880F308884FF0000080F35A
:1001D000148862B661B6BFF34F8FBFF36F8F00DF35
:1001E00000BF00BF08ED00E0DFF80C00016841F43B
:1001F00070010160704700BF88ED00E0EFF30980F7
:10020000BFF36F8F134B1A681EF0100F08BF20ED5D
:10021000108A20E9F04F106009B44FF0500080F3CD
:100220001188BFF34F8FBFF36F8F06F033F94FF094
:10023000000080F3118809BC19680868B0E8F04F25
:100240001EF0100F08BFB0EC108A80F30988BFF3CE
:100250006F8F70471C000020EFF30580704700008F
:100260000648804706480047FEE7FEE7FEE7FEE750
:10027000FEE7FEE7FEE7FEE7FEE7FEE7C14A00080D
:10028000890100082DE9F05F0546002092469B4653
:1002900088460646814640241BE02846414647469C
:1002A000224600F06AF853465A46C01A914110D3CC
:1002B00011461846224600F051F82D1A67EB010846
:1002C0004F4622460120002100F048F817EB0009B4
:1002D0004E41201EA4F10104DFDC484631462A4687
:1002E0004346BDE8F09F40EA01039B0703D009E0C5
:1002F00008C9121F08C0042AFAD203E011F8013B12
:1003000000F8013B521EF9D27047D2B201E000F86A
:10031000012B491EFBD270470022F6E710B51346A9
:100320000A4604461946FFF7F0FF204610BD10B5F7
:10033000002200E0521C835C8C5CA34201D1002BA4
:10034000F8D1D8B2E1B2401A10BD034611F8012B22
:1003500000F8012B002AF9D118467047202A04DB47
:10036000203A00FA02F1002070479140C2F12003C8
:1003700020FA03F3194390407047202A04DB203A07
:1003800021FA02F00021704721FA02F3D040C2F1B5
:10039000200291400843194670470000064C074D63
:1003A00006E0E06840F0010394E807009847103445
:1003B000AC42F6D3FFF7ECFE9C6D0008BC6D000864
:1003C00030B58C1810F8012B12F00F0301D110F882
:1003D000013B120906D110F8012B03E010F8015B74
:1003E00001F8015B5B1EF9D101E001F8013B521EEF
:1003F000FBD1A142E6D3002030BD70B504460D46C6
:1004000061190F2204F58070FFF76DFF0F2104F5CD
:10041000807004F003FF01280ED104F5C070D4F8F9
:100420000721C4F8C021B4F80B11A4F8C4110021AD
:100430004FF4E370015503E001214FF4E3700155DF
:1004400070BD024691F83500032802DA91F83600B3
:1004500008B900207047B1F93A00904205DAD1F8A6
:100460003E00401CC1F83E000DE0B1F93A004042A8
:10047000904205DDD1F83E00401CC1F83E0002E08C
:100480000020C1F83E00D1F83E00B1F93C3098425E
:1004900001DD0120DEE70020DCE700BFFEE70021F0
:1004A00081804180018081710181704710B50446CF
:1004B00040F2FF100C49086000208860C8600820E6
:1004C0000861200A094908704C7000208870C870C3
:1004D000087148718871C871054B0A460249054880
:1004E00000F0BDFE10BD0000384F00201C020020AF
:1004F00018020020EC04002010B500F071F911483A
:10050000114908601148FFF7CAFF1148FFF7C7FFFC
:100510001048FFF7C4FF1048FFF7C1FF0F48FFF76F
:10052000BEFF0021B7EE001ADFED0D0A9FED0C0AA9
:100530000C4803F0A3FC0C4B0C4A28210CA004F03F
:1005400099F910BD8D0500080C020020484E0020CE
:10055000524E00205C4E0020664E0020704E00205F
:10056000000000008C4E0020CD430008C14300086D
:1005700052465F4D6F746F720000000010B5024864
:1005800001F068F810BD0000EC04002010B504462E
:100590007E4B7F4A00217F4800F09FFF00287DD1DD
:1005A0007B48006800B910BD79480068B0F5017F4C
:1005B00045D007DCA0F2012058B1012837D002282D
:1005C0006DD138E0A0F2052000286AD00C28F7D1C0
:1005D00093E071A004F032F9724840887149888034
:1005E0006A4840786949097840EA012000B26D49BB
:1005F00048806648C0786549897840EA012000B2A1
:1006000068490880614840796049097940EA0120D9
:1006100000B2644908815D48807988710A46B2F960
:100620000010B2F90200604A00F062F9ABE05FA08E
:1006300004F004F9A7E060A004F000F9A3E061A0D1
:1006400004F0FCF862484088614988804F4840784F
:100650004E49097840EA012000B25D4948804B4884
:10066000C0784A49897840EA012000B25849088098
:10067000464840794549097940EA012000B2544989
:100680000881424880798871464AB2F90010B2F96F
:100690000200454A8C3A00F02BF974E074E071E0F6
:1006A000FFE74C4840884B498880384840783749B4
:1006B000097840EA012000B2464948803348C078B2
:1006C0003249897840EA012000B2424908802F4827
:1006D00040792E49097940EA012000B23D4908815C
:1006E0002A48807988710A46B2F90010B2F90200EE
:1006F0002D4A463200F0FCF845E0244800782349B2
:10070000497840EA012000EE100AB8EEC00ADFED99
:10071000320A80EE201A314880ED001A1B4880789A
:100720001A49C97840EA012000EE100AB8EEC00A62
:10073000DFED290A80EE201A284880ED011A1348BF
:1007400000791249497940EA012000EE100AB8EE1A
:10075000C00ADFED210A80EE201A204880ED021A3F
:100760000A4880790949C97940EA012000EE100A57
:10077000B8EEC00ADFED180A80EE201A174880EDA7
:10078000031A00E000BF00BF00BF0CE7100200200A
:100790001C4F0020EC0400204C465F4D6F746F72BC
:1007A00000000000484E0020C248002052465F4D25
:1007B0006F746F72000000004C425F4D6F746F7277
:1007C0000000000052425F4D6F746F720000000025
:1007D000664E0020704E00200000C8427C4E002073
:1007E00000B58BB0012009900020079001200890EF
:1007F0000020019002900390049006900E200A9031
:100800000020059001A9064800F0D4FD044801F03D
:10081000CCF90221024800F00DFD0BB000BD000034
:10082000EC04002010B500F041F8044804490860C9
:1008300003F00CFC0349086010BD000059080008D3
:10084000280200204802002010B5024800F002FFF4
:1008500010BD00001405002070B505460F4B104A6E
:100860000021104800F039FEA8B90D48006800B911
:1008700070BD0B480068A0F2052048B1FB2808D1E4
:10088000064809490468096801F12000046001E094
:1008900000E000BF00BF00BFEAE700002C0200201C
:1008A000644F0020140500204002002000B58BB0EA
:1008B00000200790012008900020019002900390F2
:1008C00004900E2006900A900020059001200990C7
:1008D00001A9064800F06EFD044801F066F9022106
:1008E000024800F0A7FC0BB000BD0000140500207A
:1008F00078B506460D461446A4F82F6004F1290089
:10090000A4F82B5000EE105AB8EEC00ADFED3C0AF6
:1009100020EE200AF0EE000A60EE200AA06800EE49
:10092000100A60EE800A9FED371A80EE810A10EE01
:10093000100A2061B4F82B00B4F82910401A00B254
:10094000A4F82D00B4F82B00A4F82900206900EECB
:10095000100AE06800EE900A30EE600A10EE100A0D
:1009600060612069E06094F8280048B901200934EA
:10097000E077E08C2085B4F9260044F8050C093CAA
:10098000B4F82F20B4F83130D21A10B2B4F93310C1
:1009900004F0A7FC0090206800990844206060687B
:1009A000009908446060B4F82F00A4F83100606832
:1009B000B4F938104843B4F9331090FBF1F000EE6D
:1009C000100AB8EEC00A10EE100AA0612068B4F94F
:1009D00038104843B4F9331090FBF1F000EE100AE0
:1009E000B8EEC00A10EE100A60622146009800B20C
:1009F000FFF727FD84F837000020009078BD000045
:100A0000E90F49400000704270B504460D46611977
:100A1000182204F58070FFF766FC182104F5807039
:100A200004F0FCFB01280BD10F2204F2071104F59E
:100A3000EE70FFF758FC002140F2EB10015503E087
:100A4000012140F2EB10015570BD70B504460D4612
:100A50006119132204F58070FFF745FC132104F59A
:100A6000807004F0DBFB012812D104F5C070D4F8CB
:100A70000721C4F8EC21D4F80B21C4F8F021B4F814
:100A80000F11A4F8F41100214FF4FB70015503E09D
:100A900001214FF4FB70015570BD000010B503F04B
:100AA000D5FA0549086000200449087004F07AFE70
:100AB0000349086010BD00008C0000207C45002028
:100AC00094000020C16B00EE101AB5EEC00AF1EEE2
:100AD00010FA03DDC16B00EE101A04E0C16B00EEEA
:100AE000101AB1EE400A016E00EE901AB4EEE00A60
:100AF000F1EE10FA00D87047C16B00EE101AB5EE97
:100B0000C00AF1EE10FA03DDC16B00EE101A04E02A
:100B1000C16B00EE101AB1EE400AC16D00EE901AE2
:100B2000B4EEE00AF1EE10FA05DD9FED180A10EEC2
:100B3000101AC16127E0C16D00EE901AC16B00EE82
:100B4000101AB5EEC00AF1EE10FA03DDC16B00EE2B
:100B5000101A04E0C16B00EE101AB1EE400A30EE3C
:100B6000C01AC16D00EE101A016E00EE901A30EE40
:100B7000600AC1EE000AC16900EE101A20EE800A78
:100B800010EE101AC16100BFB5E7000000000000C0
:100B900070B504460D4661190F2204F58070FFF709
:100BA000A2FB0F2104F5807004F038FB01280ED160
:100BB00004F5C070D4F80721C4F8CC21B4F80B11A7
:100BC000A4F8D01100214FF4E970015503E0012190
:100BD0004FF4E970015570BD70B504460D466119BA
:100BE00004F580700A68C4F800214A68C4F804213A
:100BF0000989A4F808110A2104F010FB012809D181
:100C000040F20711095D84F87211002140F273105F
:100C1000015503E0012140F27310015570BD000041
:100C200010B5024801F062F810BD00002407002052
:100C300010B5024801F05AF810BD000094050020DC
:100C400010B5024801F052F810BD000084070020E2
:100C500010B5024801F04AF810BD0000F40500206C
:100C600010B5024801F042F810BD0000E407002072
:100C70000146087810381823B0FBF3F20848805C6E
:100C8000C865032A05D908686FF30900001D886547
:100C900003E008686FF309008865886D70470000FD
:100CA000386A0008014600208A6A8B69CBB932B1E4
:100CB000012A0DD0022A03D0032A10D10EE000BF72
:100CC000CB6A03F08073B3F1807F00D1012007E08D
:100CD000CB6AB3F1C07F00D1012001E000E000BF8A
:100CE00034E08B69B3F5005F1AD132B1012A07D025
:100CF000022A03D0032A11D10AE000BF01200EE02E
:100D0000CB6A03F08073B3F1807F00D1012006E04D
:100D1000CB6AB3F1C07F00D1012000E000BF15E035
:100D200032B1012A05D0022A04D0032A0CD103E0F3
:100D300000BF00BF012008E0CB6A03F08073B3F16D
:100D4000807F00D1012000E000BF00BF704700009D
:100D50001249096841F08071104A11600021104A5F
:100D600051601146096841F0010111600D4941438C
:100D70000D4A1160114609684FF47A72B1FBF2F125
:100D80000A4A116008490968064AB1FBF2F1084AAB
:100D900011600021074A116070470000FCED00E07F
:100DA000001000E040420F00580200205C020020CA
:100DB00060020020640200207047000002480078B2
:100DC000401C014908707047FE01002010B5242323
:100DD000064AA2F12401064803F03CF9054B064AF5
:100DE000282106A003F046FD10BD0000CC470020DE
:100DF0009C060020813C0008BD0D0008647231365D
:100E00000000000010B5034803F068F902A003F0E9
:100E100015FD10BD9C0600206472313600000000F4
:100E200000B5FF23034AA2F58071034805F0E2F8FC
:100E300000BD00004E4A0020E006002070B50446C8
:100E40000D4661190D2204F58070FFF74CFA0D2153
:100E500004F5807004F0E2F9012808D1D4F80711F4
:100E6000C4F86311002140F26910015503E001212B
:100E700040F26910015570BD10B5102001F0CEF898
:100E800010BD10B5202001F0C9F810BD70B52DEDD2
:100E9000028B04460D46B0EE408A204600F031F841
:100EA00018EE100AA06084F83550002084F837004E
:100EB00084F836006DB1012D17D0022D1CD1280306
:100EC000A4F83300242020870A206087E801A08747
:100ED00013E04FF40050A4F83300132020870A20B9
:100EE00060874FF48070A08707E04FF40050A4F8AB
:100EF00033000120208700E000BF00BFBDEC028B63
:100F000070BD10B5044646212046FFF705FA10BD16
:100F100072B600BFFEE7000010B50349B1F9300119
:100F2000FFF7C4FA10BD00009C000020354890F87F
:100F30002C00022804D0334890F82C00032800D15C
:100F4000704731480068C07A01280ED0022802D0CC
:100F500003280FD104E001202A4981F82C000EE07B
:100F60000120284981F82C0009E00020254981F85A
:100F70002C0004E00120234981F82C0000BF00BFB1
:100F800021480068B0F9080010F1C80F05DD1E48BF
:100F90000068B0F90800C82804DB1B480068807CA2
:100FA000012802D10120194908701848007800B9B9
:100FB000C6E7144890F82C0098B913480068B0F9B7
:100FC000080040F28A21884204DA0F480068807CD9
:100FD000012806D100200D4908700220094981F836
:100FE0002C0009480068B0F908000949884206DC6D
:100FF0000020064908700320024981F82C0000BF38
:101000009EE700007C4500208C0000209A00002014
:1010100076FDFFFF04F07CFA0CE005F085F8FFF7A1
:1010200085FF04F0CBFA00F007F805F0A7F80120DF
:1010300005F028F9F1E7000010B5FFF76DFF06484D
:101040000078012803D1002003F048FC02E00120D1
:1010500003F044FC10BD0000D401002070B504462C
:101060000D46611904F580700A68C4F800214A68C9
:10107000C4F804210989A4F808110A2104F0CEF863
:10108000012816D140F21111D4F807214FF4A570B0
:10109000C4F84021D4F80B21C4F84421B4F80F213E
:1010A000A4F84821095D0155002140F24110015585
:1010B00003E0012140F24110015570BD70B50446B6
:1010C0000D466119142204F58070FFF70CF9142104
:1010D00004F5807004F0A2F8012815D140F2111136
:1010E000D4F80721C4F83421D4F80B21C4F83821EE
:1010F000B4F80F21A4F83C21095D84F83E110021C9
:1011000040F23F10015503E0012140F23F1001552C
:1011100070BD000030B5034613B94FF6FF7030BD07
:1011200009E013F8014B82EA0400C0B2054D35F81E
:10113000100080EA2222081EA1F10101F1D110461F
:10114000EDE70000766B000830B5034605E013F8C4
:10115000010B80EA02040448025D081EA1F10101AE
:10116000F5D1104630BD0000756A000870B52DED50
:10117000028B04460D46B0EE408A052C34D2DFE8DF
:1011800004F0030D17212B00B0EE480A294617483A
:10119000FFF77CFE1548BDEC028B70BDB0EE480A2F
:1011A000294612484630FFF771FE10484630F2E7F4
:1011B000B0EE480A29460D488C30FFF767FE0B4811
:1011C0008C30E8E7B0EE480A29460848D230FFF7ED
:1011D0005DFE0648D230DEE7B0EE480A29460448F4
:1011E000FFF754FE0248D6E70020D4E7F04700207E
:1011F000084900200146A1F2012005280ED2DFE8AF
:1012000000F0030507090B00054870470548FCE797
:101210000548FAE70548F8E70548F6E70020F4E74F
:10122000484E0020524E00205C4E0020664E0020AA
:10123000704E002010B5024692F82030012B01D0EC
:10124000022B06D1106840690843146860610020D1
:1012500010BD506A40F4802050620120F8E7F0B5DC
:1012600004460D461E4694F8207020688368A868DE
:1012700000B900E000BF012F01D0022F7CD103F0A4
:10128000806030B903F0006018B903F08050002886
:1012900073D0C3F30161022905D9606A40F40000EC
:1012A00060620120F0BD012088403060A86860B90C
:1012B000B5F800C0E86840EA4C5C206800F5C070F2
:1012C00000EB0110C0F800C00FE0D5E901C040EA12
:1012D000CC00D5F80CC040EA0C00D4F800C00CF5E6
:1012E000C07C0CEB011CCCF80000D5F810C02068C5
:1012F00000F5C07000EB0110C0F804C0287D012883
:101300000ED1206800F5C07000EB0110406840F479
:10131000807C206800F5C07000EB0110C0F804C0AC
:10132000D079000692F806C040EA0C4092F805C059
:1013300040EA0C2C10794CEA000C206800F5C070D3
:1013400000EB0110C0F80CC0D078000692F802C083
:1013500040EA0C4092F801C040EA0C2092F800C02C
:1013600040EA0C00D4F800C00CF5C07C0CEB011C6A
:10137000CCF80800206801E016E00FE000F5C0702E
:1013800000EB0110006840F0010C206800F5C0700F
:1013900000EB0110C0F800C0002083E7606A40F451
:1013A0000010606201207DE7606A40F48020606286
:1013B000012077E7F0B504460A46216894F82050EA
:1013C000012D01D0022D7ED1424901F5007108683E
:1013D00040F001000860086820F47C50086008684C
:1013E000566A40EA06200860107D00F01F060120C2
:1013F00000FA06F3C8699843C861A1F50071D06985
:10140000C8B9D1F80C029843C1F80C02908880B298
:10141000968940EA064601F51070576940F8376032
:10142000108880B2168940EA064601F510705769A7
:1014300000EBC7004660D069012819D1D1F80C0231
:101440001843C1F80C02908880B2168840EA06461C
:1014500001F51070576940F83760908980B216899D
:1014600040EA064601F51070576900EBC700466078
:10147000906928B9D1F804029843C1F8040204E045
:10148000D1F804021843C1F80402106928B9D1F850
:1014900014029843C1F8140204E0D1F8140218436E
:1014A000C1F81402106A012804D1D1F81C021843B3
:1014B000C1F81C02D1F8000220F00100C1F80002BE
:1014C0000020F0BDFFE7606A40F4802060620120E8
:1014D000F7E7000000640040704770B5044694F8D8
:1014E0002050012D01D0022D7DD151B92068C06856
:1014F00000F0030080B9606A40F4001060620120CF
:1015000070BD2068006900F0030028B9606A40F4EB
:10151000001060620120F3E7206800F5D87000EB4E
:101520000110006800F004009060906840B92068E5
:1015300000F5D87000EB01100068400D106007E066
:10154000206800F5D87000EB01100068C0085060FA
:10155000206800F5D87000EB0110006800F0020070
:10156000D060206800F5D87000EB0110406800F0F2
:101570000F001061206800F5D87000EB0110406882
:1015800000F47F40000A9061206800F5D87000EBFD
:1015900001104068000C5061206800F5D87000EB25
:1015A000011080681870206800F5D87000EB0110F9
:1015B000806800F47F40000A5870206800F5D870F9
:1015C00000EB0110806800F47F00000C9870206828
:1015D00000F5D87000EB01108068000ED87020680C
:1015E00000F5D87000E02FE000EB0110C068187122
:1015F000206800F5D87000EB0110C06800F47F404F
:10160000000A5871206800F5D87000EB0110C0681E
:1016100000F47F00000C9871206800F5D87000EB92
:101620000110C068000ED87131B92068C06840F060
:1016300020002668F06005E02068006940F0200086
:101640002668306100205BE7606A40F480206062B9
:10165000012055E72DE9F05F044600252068466922
:101660002068D0F80490206887682068D0F80CA023
:101670002068D0F810B02068D0F8188006F001007B
:10168000002855D007F00100C0B101202168886012
:1016900007F0020018B1204600F0B7FA0EE007F09C
:1016A000040010B145F4006508E007F0080010B12F
:1016B00045F4805502E0204600F0A6FA07F4807059
:1016C000C8B14FF480702168886007F4007018B1C9
:1016D000204600F09CFA0EE007F4806010B145F45B
:1016E000005508E007F4006010B145F4804502E0C1
:1016F000204600F08BFA07F48030C8B14FF48030F8
:101700002168886007F4003018B1204600F081FAA3
:101710000EE007F4802010B145F4004508E007F41E
:10172000002010B145F4803502E0204600F070FA48
:1017300006F0080038B10AF0100020B145F4007539
:1017400010202168C86006F0040040B10AF00800CB
:1017500028B108202168C860204600F00DFA06F084
:10176000020038B12068C06800F0030010B12046C4
:1017700000F004FA06F0400038B10BF0100020B180
:1017800045F4806510202168086106F0200040B112
:101790000BF0080028B1082021680861204600F0FD
:1017A00001FA06F0100038B12068006900F003006B
:1017B00010B1204600F0F7F906F4003040B109F00E
:1017C000100028B1102021684860204600F0ECF994
:1017D00006F4803040B109F0080028B108202168E3
:1017E0004860204600F016FA06F4004088B309F07D
:1017F000040078B306F4807020B108F0010008B14D
:1018000045F0010506F4007020B108F0020008B1AF
:1018100045F0020506F4806020B108F0040008B12C
:1018200045F0040506F40060A0B108F0700088B12E
:1018300008F07000402817D006DC10280BD02028B4
:101840000CD0302819D10CE0502810D0602814D1C9
:1018500010E01DE019E045F008050FE045F0100527
:101860000CE045F0200509E045F0400506E045F0B4
:10187000800503E045F4807500E000BF00BF2068EC
:10188000806920F070002168886104202168486028
:101890002DB1606A284360622046FFF71DFEBDE857
:1018A000F09F70B504460CB9012070BD94F820007B
:1018B00010B9204600F0B0F82068006840F0010040
:1018C0002168086000F0B8FC05460DE000F0B4FCAB
:1018D000401B0A2808D9606A40F400306062052085
:1018E00084F820000120E0E72068406800F0010053
:1018F0000028EBD02068006820F002002168086012
:1019000000F09AFC05460DE000F096FC401B0A280A
:1019100008D9606A40F400306062052084F8200035
:101920000120C2E72068406800F002000028EBD1E7
:10193000207E012806D12068006840F080002168E0
:10194000086005E02068006820F0800021680860D9
:10195000607E012806D12068006840F040002168C0
:10196000086005E02068006820F0400021680860F9
:10197000A07E012806D12068006840F02000216880
:10198000086005E02068006820F0200021680860F9
:10199000E07E012806D12068006820F01000216850
:1019A000086005E02068006840F0100021680860C9
:1019B000207F012806D12068006840F008002168D7
:1019C000086005E02068006820F0080021680860D1
:1019D000607F012806D12068006840F0040021687B
:1019E000086005E02068006820F0040021680860B5
:1019F000D4E9020108432169084361690843616829
:101A0000491E08432168C86100206062012084F8F3
:101A10002000002049E7000010B586B004461421DC
:101A200001A8FEF779FC4E492068884241D14D4813
:101A30000068401C4B4908600846006801280FD127
:101A400000BF002000904848006840F00070464900
:101A500008600846006800F00070009000BF00BFFA
:101A600000BF0020009040481038006840F0080097
:101A70003D49103908600846006800F008000090F1
:101A800000BF00BF032001900220029000200390BD
:101A9000032004900920059001A9344800F0CCFAF5
:101AA00000220521142000F081FC142000F06EFCBF
:101AB00054E02F492068884250D100BF0020009098
:101AC0002948006840F0806027490860084600689F
:101AD00000F08060009000BF00BF22480068401CFA
:101AE000204908600846006801280FD100BF002087
:101AF00000901D48006840F000701B4908600846CF
:101B0000006800F00070009000BF00BF00BF002020
:101B1000009015481038006840F002001249103952
:101B200008600846006800F00200009000BF00BF97
:101B30006020019002200290002003900320049076
:101B40000920059001A90B4800F076FA0022052132
:101B5000402000F02BFC402000F018FC06B010BD27
:101B6000006400400800002040380240000C0240A1
:101B700000680040000402407047000010B50446B1
:101B80000648844202D12046FEF700FD0448844204
:101B900002D12046FEF760FE10BD0000EC040020DC
:101BA0001405002070477047704770B5044694F8DC
:101BB0002000012822D1022084F82000206800683B
:101BC00020F001002168086000F036FB05460DE0BA
:101BD00000F032FB401B0A2808D9606A40F400304C
:101BE0006062052084F82000012070BD20684068F4
:101BF00000F001000028EBD16062F6E7606A40F473
:101C0000002060620120F0E770477047704770471E
:101C100070477047704770B50446A56D00F00CFB27
:101C2000064694F83500022808D08020606500BF81
:101C3000002084F8340000BF012070BD20680068D7
:101C400020F01600216808602068406920F08000BC
:101C500021684861206C08B9A06C28B12068006830
:101C600020F00800216808602068006820F001006A
:101C70002168086010E000F0DFFA801B05280BD90E
:101C800020206065032084F8350000BF002084F820
:101C9000340000BF0320D0E72068006800F0010096
:101CA0000028E8D194F85C103F208840A86001200B
:101CB00084F8350000BF002084F8340000BF00BF66
:101CC000BBE7014691F83500022803D08020486523
:101CD00001207047052081F835000868006820F071
:101CE00001000A6810600020F3E70000F8B5044620
:101CF000002000908C4800684FF41651B0FBF1F7BB
:101D0000A56D2E6894F85C1008208840304098B18A
:101D10002068006800F0040070B12068006820F0BE
:101D200004002168086094F85C1008208840A860CE
:101D3000606D40F00100606594F85C1001208840FF
:101D4000304068B12068406900F0800040B194F8EC
:101D50005C1001208840A860606D40F00200606562
:101D600094F85C1004208840304068B12068006816
:101D700000F0020040B194F85C1004208840A86094
:101D8000606D40F00400606594F85C10102088409D
:101D9000304078B32068006800F0080050B394F831
:101DA0005C1010208840A8602068006800F4802043
:101DB00080B12068006800F4002028B9206CC8B108
:101DC0002046216C884715E0A06C98B12046A16C94
:101DD00088470FE02068006800F4807028B9206808
:101DE000006820F0080021680860206C10B12046CF
:101DF000216C884794F85C102020884030400028EF
:101E000065D02068006800F0100000285FD094F8CA
:101E10005C1020208840A86094F83500052828D15F
:101E20002068006820F0160021680860206840697A
:101E300020F0800021684861206C08B9A06C28B1AE
:101E40002068006820F008002168086094F85C10A1
:101E50003F208840A860012084F8350000BF0020A2
:101E600084F8340000BF206D10B12046216D8847F2
:101E7000F8BD2068006800F4802080B12068006808
:101E800000F4002028B9606C10B12046616C8847CE
:101E90001DE0E06BD8B12046E16B884717E0206871
:101EA000006800F4807068B92068006820F01000B5
:101EB00021680860012084F8350000BF002084F804
:101EC000340000BFE06B10B12046E16B8847606DC5
:101ED00038B3606D00F00100F0B1052084F83500E2
:101EE0002068006820F001002168086000BF0098A9
:101EF000401C0090B84200D905E02068006800F05E
:101F000001000028F3D100BF012084F8350000BF94
:101F1000002084F8340000BFE06C10B12046E16C72
:101F2000884700BFA4E70000180000202DE9F04119
:101F30000446002500F080F9074614B90120BDE8E9
:101F4000F081606A00B100BF022084F8350000BF54
:101F5000002084F8340000BF2068006820F00100F1
:101F6000216808600AE000F067F9C01B052805D960
:101F700020206065032084F83500E0E720680068D1
:101F800000F001000028EED12068056821480540D6
:101F9000D4E901010843E168084321690843616904
:101FA0000843A1690843E1690843216A08430543DE
:101FB000606A042803D1D4E90B0108430543206873
:101FC00005602068456925F00705606A0543606A79
:101FD00004280DD1A06A0543E06A48B12046FEF707
:101FE00061FE28B140206065012084F83500A6E735
:101FF000206845612046FEF73BFE064694F85C10DB
:102000003F208840B06000206065012084F83500E2
:10201000002094E73F8010F07047000010B50446A0
:1020200004480068204020B1024804602046FFF7C1
:10203000F3FF10BD143C0140F8B502460B460025E5
:10204000002400200021D6E0012606FA01F51E68D2
:1020500006EA0504AC4274D11E7906F00306012E8F
:1020600004D01E7906F00306022E13D190684F00AB
:102070000326BE40B0434F00DE68BE403043906050
:10208000506801268E40B0431E79C6F300168E407C
:10209000304350601E7906F00306032E09D0D06845
:1020A0004F000326BE40B0434F009E68BE40304301
:1020B000D0601E7906F00306022E13D1CF0802F17C
:1020C000200656F827004E07F70E0F26BE40B043F5
:1020D0004F07FF0E1E69BE403043CF0802F12006B5
:1020E00046F8270010684F000326BE40B0431E7913
:1020F00006F003064F00BE40304310605E6806F4F1
:102100004036002E76D000BF002600963C4E366842
:1021100046F480463A4F3E603E46366806F48046B6
:10212000009600BF00BF374E8F0856F827008E0775
:10213000370F0F26BE40B043334EB24202D10026C5
:1021400024E057E0314EB24201D101261EE0304E6C
:10215000B24201D1022619E02E4EB24201D103262D
:1021600014E02D4EB24201D104260FE02B4EB242B4
:1021700001D105260AE02A4EB24201D1062605E029
:10218000284EB24201D1072600E008268F073F0FF4
:10219000BE4030431B4E8F0846F82700224E306861
:1021A000A0435E6806F4801606B120431E4E3060E0
:1021B000361D3068A0435E6806F4001606B1204361
:1021C000194E361D3060184E361F3068A0435E68C9
:1021D00006F4003606B12043134E361F3060361F1A
:1021E0003068A0435E6806F4803606B120430E4E88
:1021F000083E3060491C1029FFF426AFF8BD0000EE
:102200004438024008380140000002400004024007
:1022100000080240000C024000100240001402407E
:1022200000180240001C0240083C01400AB18161D4
:1022300001E00B04836170470148006870470000AB
:102240000C0000200348006803490978084401494C
:10225000086070470C0000201400002010B50D48E5
:10226000006840F400700B4908600846006840F4BC
:10227000806008600846006840F4807008600320B1
:1022800000F0D2F80F2000F007F800F055F8002019
:1022900010BD0000003C0240F0B587B004460026A7
:1022A000002700BF002000901E48006840F0010099
:1022B0001C4908600846006800F00100009000BF5B
:1022C00000BF01A902A800F085F900F0BBF94600A3
:1022D0001548B6FBF0F0471E14481549086040F257
:1022E000E7311348C160476000210161816081616D
:1022F00000F06AFD054695B90D4800F0BDFD0546A4
:102300006DB9192000F042F8102C07D200222146A6
:10231000192000F04BF80748046000E0012528462A
:1023200007B0F0BD4438024040420F0000000140B9
:10233000440800201000002008B500BF00200090D5
:102340001148006840F480400F4908600846006862
:1023500000F48040009000BF00BF00BF002000904C
:10236000081F006840F08050091F08600846006898
:1023700000F08050009000BF00BF00220F21901E8F
:1023800000F014F808BD0000443802400146084639
:10239000002809DB00F01F0301229A4043099B003B
:1023A00003F1E023C3F8002100BF70472DE9F05F7F
:1023B00080460D461646002702F068FF074639465C
:1023C0002A46334601F00700C0F1070ABAF1040FAC
:1023D00002D94FF0040A01E0C0F1070AD14600F12A
:1023E000040ABAF1070F02D24FF0000A01E0A0F18F
:1023F000030AD4464FF0010A0AFA09FAAAF1010ABF
:102400000AEA020A0AFA0CFA4FF0010B0BFA0CFB6B
:10241000ABF1010B0BEA030B4AEA0B0421464046E1
:1024200002F03CFFBDE8F09F00BF00F00702064B42
:1024300019684FF6FF031940044B0B4343EA02218E
:10244000014B196000BF70470CED00E00000FA0579
:1024500070B504460D460CB9012070BD584800689F
:1024600000F00700A84209D255490D7008460068DF
:1024700000F00700A84201D00120EEE7207800F02C
:10248000020002281DD1207800F00400042805D1A4
:102490004C48006840F4E0504A490860207800F059
:1024A0000800082805D14748006840F460404549C5
:1024B00008604448006820F0F000A16808434149E2
:1024C0000860207800F00100A8B36068012807D1F7
:1024D0003C4808380068C0F34040B8B90120BCE768
:1024E0006068022802D06068032807D135480838A0
:1024F0000068C0F3406048B90120AEE731480838B1
:102500000068C0F3400008B90120A6E72D48006824
:1025100020F00300616808432A490860FFF78CFE39
:10252000064609E0FFF788FE801B41F288318842A9
:1025300002D9032091E707E02248006800F00C0070
:102540006168B0EB810FEDD11D48006800F0070015
:10255000A84209D91A490D700846006800F0070022
:10256000A84201D0012078E7207800F00400042878
:1025700007D11448006820F4E050E168084311498D
:102580000860207800F00800082808D10D4800688D
:1025900020F46040216940EAC1000A49086000F067
:1025A00061F808490968C1F30311074A515CC84042
:1025B0000649086006480068FFF76EFE00204CE7F9
:1025C000003C024008380240406A00081800002021
:1025D000100000200F2202600D4A126802F0030270
:1025E00042600B4A126802F0F0028260084A1268E8
:1025F00002F4E052C260064A126802F46042D20855
:102600000261044A126802F007020A607047000083
:1026100008380240003C0240014800687047000052
:102620001800002000B5FFF7F7FF04490968C1F35F
:102630008221034A515CC84000BD000008380240B6
:10264000506A000800B5FFF7E7FF04490968C1F3C5
:102650004231034A515CC84000BD000008380240C6
:10266000506A00082DE9F047002400250026A14605
:102670002548006800F00C0020B1042805D0082887
:102680003AD105E0DFF8849039E0DFF8849036E055
:102690001D48001F006800F03F041B48001F006831
:1026A00000F4800078B11A481749091F0968C1F37E
:1026B0008811A0FB01700146224600233846FDF731
:1026C000E1FD05460EE011480F49091F0968C1F3F5
:1026D0008811A0FB01700146224600233846FDF711
:1026E000D1FD05460848001F0068C0F30140401CAA
:1026F0004600B5FBF6F902E0DFF8109000BF00BF1E
:102700004846BDE8F0870000083802400024F40085
:10271000001BB700F8B504460CB90120F8BD2078BD
:1027200000F00100002874D0F948006800F00C00A7
:1027300004280DD0F648006800F00C00082813D1DA
:10274000F348001F006800F48000B0F5800F0BD143
:10275000EF4808380068C0F34040002859D060684E
:10276000002856D10120D9E700BF6068B0F5803F4E
:1027700008D1E7480838006840F48030E449083957
:1027800008601EE06068B0F5A02F0DD1E048083861
:10279000006840F48020DE49083908600846006877
:1027A00040F4803008600CE0D9480838006820F414
:1027B0008030D749083908600846006820F4802036
:1027C000086000BF606890B1FFF736FD054606E07F
:1027D000FFF732FD401B642801D903209EE7CC4857
:1027E00008380068C0F340400028F1D011E0FFF73E
:1027F00023FD054606E0FFF71FFD401B642801D9B5
:1028000003208BE7C24808380068C0F34040002826
:10281000F1D1207800F0020002285FD1BC480068A6
:1028200000F00C0058B1BA48006800F00C0008280D
:102830001CD1B748001F006800F48000B0B9B4484C
:1028400008380068C0F3400020B1E068012801D0DA
:10285000012063E7AE480838006820F0F8002169DD
:1028600040EAC100AA490839086037E0E06800B3CF
:102870000120A8490860FFF7DFFC054606E0FFF7E6
:10288000DBFC401B022801D9032047E7A048083899
:102890000068C0F340000028F1D09D480838006867
:1028A00020F0F800216940EAC10099490839086020
:1028B00014E0002097490860FFF7BEFC054606E0DB
:1028C000FFF7BAFC401B022801D9032026E79048F5
:1028D00008380068C0F340000028F1D1207800F0EB
:1028E000080008282CD16069A8B101208A49086035
:1028F000FFF7A2FC054606E0FFF79EFC401B0228FE
:1029000001D903200AE782486C300068C0F3400018
:102910000028F1D014E000207F490860FFF78CFC0C
:10292000054606E0FFF788FC401B022801D903207A
:10293000F4E677486C300068C0F340000028F1D11D
:10294000207800F00400042870D100277048383047
:10295000006800F0805090B900BF002000906C48E3
:102960003830006840F080506949383108600846C6
:10297000006800F08050009000BF00BF012767484A
:10298000006800F48070B0B96448006840F480705A
:1029900062490860FFF750FC054606E0FFF74CFC73
:1029A000401B022801D90320B8E65C48006800F407
:1029B00080700028F2D000BFA068012808D15448D8
:1029C0006830006840F001005149683108601DE03E
:1029D000A06805280DD14E486830006840F004001A
:1029E0004B49683108600846006840F00100086003
:1029F0000CE047486830006820F001004449683125
:102A000008600846006820F00400086000BFA06865
:102A1000A8B1FFF711FC054609E0FFF70DFC401BCC
:102A200041F28831884202D9032077E626E038480F
:102A300068300068C0F340000028EED013E0FFF7D4
:102A4000FBFB054608E0FFF7F7FB401B41F288312E
:102A5000884201D9032061E62D4868300068C0F340
:102A600040000028EFD1012F07D1294838300068F5
:102A700020F0805026493831086000BFA069002846
:102A800045D02348006800F00C0008285DD0A069FC
:102A9000022845D100201F490866FFF7CDFB0546F7
:102AA00006E0FFF7C9FB401B022801D9032035E6E9
:102AB000174808380068C0F340600028F1D1D4E915
:102AC00007010843616A40EA81110122A06AC2EB52
:102AD000500041EA00412C20005D41EA00600C49B1
:102AE000091F086001200B490866FFF7A5FB054692
:102AF00006E0FFF7A1FB401B022801D903200DE6E9
:102B0000034808380068C0F340600028F1D049E06D
:102B10000838024000004742800E474200700040E3
:102B2000002021490866FFF787FB054606E0FFF70E
:102B300083FB401B022801D90320EFE51B480068F6
:102B4000C0F340600028F2D12CE0A069012800D138
:102B5000E4E51648001D0668A069012820D006F4A7
:102B60008001E06981421BD106F03F01206A814269
:102B700016D147F6C0703040616AB0EB811F0FD1AB
:102B800006F440310122A06AC2EB5000B1EB004FC5
:102B900006D106F070612C20005DB1EB006F01D012
:102BA0000120BBE50020B9E50000474200380240A3
:102BB00010B504460CB9012010BD606A38B96068D0
:102BC000B0F5827F00D105E00021E16102E0002143
:102BD000216161610021A16294F8510028B90020AF
:102BE00084F85000204600F047F8022084F8510095
:102BF0002068006820F0400021680860A08800F488
:102C00008270218901F404410843A18901F4006123
:102C10000843217C01F002010843217D01F00101FC
:102C20000843218B01F400710843217F01F0380132
:102C300008432021095D01F080010843218D01F442
:102C400000510843216808600421A06901EA10408E
:102C500094F8241001F010010843216848602068AE
:102C6000C06920F400602168C8610020606501200F
:102C700084F8510000209FE710B586B00446142167
:102C800001A8FDF749FB4849206888427ED100BF72
:102C9000002000904548006840F480504349086097
:102CA0000846006800F48050009000BF00BF00BFDD
:102CB000002000903D481438006840F002003B4975
:102CC000143908600846006800F00200009000BF58
:102CD00000BF00BF002000900846006840F00100DF
:102CE00008600846006800F00100009000BF00BFC7
:102CF00018200190022002900120039003200490EC
:102D00000520059001A92A48FFF796F98020019037
:102D100002200290012003900320049005200590DA
:102D200001A92448FFF788F92348244908604FF097
:102D3000C0604860002121488160C1604FF480611B
:102D40000161002141618161C16101624162FFF75E
:102D5000EDF808B1FEF7DCF800BF1848E0648463C2
:102D600000BF15484830164908604FF0C060486001
:102D70004021134881600021C1604FF480610161EE
:102D8000002141618161C161016200E00AE04162AC
:102D9000FFF7CCF808B1FEF7BBF800BF0848A06405
:102DA000846300BF06B010BD0030014044380240CB
:102DB000000402400000024010640240940500201C
:102DC000F40500207047704710B504460CB9012087
:102DD00010BD94F83D0028B9002084F83C0020463E
:102DE00000F026F8022084F83D00211D206801F043
:102DF0007DFE012084F8460000BF84F83E000121DA
:102E00003F200155402001554120015500BF00BF22
:102E1000012084F8420043200155442001554520FB
:102E2000015500BF012084F83D000020D0E70000DC
:102E300038B504460E492068884217D100BF0020EB
:102E400000900C48006840F400300A4908600846C9
:102E5000006800F40030009000BF00BF00220F2186
:102E60001920FFF7A3FA1920FFF790FA38BD0000E8
:102E70000044014044380240014691F83D000128D9
:102E800001D001207047022081F83D000868C06829
:102E900040F001000B68D8601A4B086898421BD0BC
:102EA0000868B0F1804F17D0174B0868984213D0CC
:102EB000164B086898420FD0154B086898420BD003
:102EC000144B0868984207D0134B0868984203D007
:102ED000124B086898420CD10868806800F007021D
:102EE000062A0CD00868006840F001000B681860E2
:102EF00005E00868006840F001000B6818600020D9
:102F0000C0E700000000014000040040000800404D
:102F1000000C004000040140004001400018004047
:102F2000704710B5044620680069C0F34000D8B16E
:102F30002068C068C0F34000B0B16FF002002168A3
:102F40000861012020772068806900F0030018B133
:102F50002046FFF7E5FF05E0204600F0DFF82046B9
:102F600000F093F90020207720680069C0F380000A
:102F7000D8B12068C068C0F38000B0B16FF0040021
:102F800021680861022020772068806900F4407081
:102F900018B12046FFF7C4FF05E0204600F0BEF858
:102FA000204600F072F90020207720680069C0F305
:102FB000C000D8B12068C068C0F3C000B0B16FF0E5
:102FC000080021680861042020772068C06900F0AB
:102FD000030018B12046FFF7A3FF05E0204600F0EC
:102FE0009DF8204600F051F9002020772068006904
:102FF000C0F30010D8B12068C068C0F30010B0B1B1
:103000006FF0100021680861082020772068C069EF
:1030100000F4407018B12046FFF782FF05E020461B
:1030200000F07CF8204600F030F90020207720687E
:10303000006900F0010058B12068C06800F001008C
:1030400030B16FF0010021680861204600F01EF9E0
:1030500020680069C0F3C01058B12068C068C0F390
:10306000C01030B16FF08000216808612046FFF782
:10307000A9FE20680069C0F3801058B12068C068BC
:10308000C0F3801030B16FF0400021680861204625
:1030900000F008F920680069C0F3401058B12068BA
:1030A000C068C0F3401030B16FF0200021680861A3
:1030B0002046FFF788FE10BD10B586B004461421E7
:1030C00001A8FDF729F91249206888421DD100BFE7
:1030D000002000900F48006840F020000D49086073
:1030E0000846006800F02000009000BF00BF4020AC
:1030F00001900220029001200390022004900320FE
:10310000059001A90448FEF797FF06B010BD000026
:1031100000440140303802400014024070472DE95D
:10312000F04104460D461646002700BF94F83C00C7
:10313000012802D10220BDE8F081012084F83C0082
:1031400000BF36B1042E1BD0082E31D00C2E5ED11C
:1031500045E02946206801F035FD2068806940F08F
:103160000800216888612068806920F004002168D7
:10317000886120688069296908432168886148E07E
:103180002946206801F056FD2068806940F40060FF
:10319000216888612068806920F4806021688861E6
:1031A00020688069296940EA01202168886130E04F
:1031B0002946206801F07CFD2068C06940F00800C5
:1031C0002168C8612068C06920F004002168C861D6
:1031D0002068C069296908432168C86119E0294647
:1031E000206801F0A1FD2068C06940F400602168FA
:1031F000C8612068C06920F480602168C8612068C7
:10320000C069296940EA01202168C86101E00127FD
:1032100000BF00BF00BF002084F83C0000BF38465C
:1032200089E710B504460CB9012010BD94F83D00A3
:1032300028B9002084F83C00204600F025F8022040
:1032400084F83D00211D206801F050FC012084F825
:10325000460000BF84F83E0001213F200155402078
:1032600001554120015500BF00BF012084F84200F4
:1032700043200155442001554520015500BF012040
:1032800084F83D000020D0E77047704710B5044631
:1032900003492068884201D1FEF7D4FF10BD000029
:1032A0000000014070477047704700002DE9F84F5B
:1032B0000446206805682068C668206847694FF0A2
:1032C0000009CA4605F00F09B9F1000F0AD105F04F
:1032D000200038B106F0200020B1204601F09EFD0C
:1032E000BDE8F88FB9F1000F7CD007F0010018B9E4
:1032F00006F49070002875D005F0010030B106F496
:10330000807018B1206C40F00100206405F00400CA
:1033100030B107F0010018B1206C40F002002064C9
:1033200005F0020030B107F0010018B1206C40F048
:103330000400206405F0080048B106F0200010B930
:1033400007F0010018B1206C40F008002064206CE8
:10335000002846D005F0200028B106F0200010B16A
:10336000204601F05BFD20684069C0F3801A206CA4
:1033700000F0080010B9BAF1000F2DD0204601F07E
:1033800007FD2068406900F04000402820D100BFC0
:1033900000BF2168143151E8001F21F0400021686E
:1033A000143141E80002002AF3D100BFA06B50B1F4
:1033B0007548A16B0865A06BFEF783FC88B1A06B14
:1033C000016D88470DE02046FFF76EFF09E009E038
:1033D0002046FFF769FF04E02046FFF765FF002065
:1033E00020647DE7206B012876D105F010000028CD
:1033F00072D006F010000028FAD000BF0020009024
:1034000020680068009020684068009000BF00BFFE
:103410002068406900F0400040285ED1A06B006841
:1034200040681FFA80F8B8F1000F54D0A08D4045D5
:1034300051DDA4F82E80A06BC069B0F5807F43D029
:1034400000BF00BF21680C3151E8001F21F48070DB
:1034500021680C3141E80002002AF3D100BF00BF0F
:1034600000BF2168143151E8001F21F001002168DC
:10347000143141E80002002AF3D100BF00BF00BFB1
:103480002168143151E8001F21F0400021681431F7
:1034900041E80002002AF3D100BF202084F83E005A
:1034A0000020206300BF00BF21680C3151E8001FDD
:1034B00021F0100021680C3141E80002002AF3D10C
:1034C00000BFA06BFEF7A7FBA08DE28D801A81B232
:1034D0002046FFF7E8FE03E740E0A08DE18D401AAB
:1034E0001FFA80F8E08DC0B3B8F1000F35D000BFEF
:1034F00000BF21680C3151E8001F21F49070216851
:103500000C3141E80002002AF3D100BF00BF00BF28
:103510002168143151E8001F21F0010021681431A5
:1035200041E80002002AF3D100BF202084F83E00C9
:103530000020206300BF00BF21680C3151E8001F4C
:1035400021F0100021680C3141E80002002AF3D17B
:1035500000BF41462046FFF7A6FEC1E605F0800009
:1035600030B106F0800018B1204601F0E9FDB7E661
:1035700005F0400030B106F0400018B1204601F0DF
:103580003DFCADE600BFABE67D4D000810B504463E
:103590000CB9012010BDA06900B100E000BF94F893
:1035A0003D0028B9002084F83C00204600F028F8AF
:1035B000242084F83D002068C06820F40050216871
:1035C000C860204601F0A6FC2068006920F4904005
:1035D000216808612068406920F02A00216848615C
:1035E0002068C06840F400502168C8600020206452
:1035F000202084F83D0084F83E000020CAE7000047
:1036000010B586B00446142101A8FCF785FE6D496B
:103610002068884259D100BF002000906A480068A5
:1036200040F48020684908600846006800F4802063
:10363000009000BF00BF00BF00200090624810381B
:10364000006840F0040060491039086008460068CE
:1036500000F00400009000BF00BF4FF440600190F4
:103660000220029000200390032004900720059080
:1036700001A95648FEF7E0FC5548564908604FF04E
:1036800000604860002153488160C1604FF4806150
:1036900001610021416181614FF48071C1610021AC
:1036A00001624162FEF742FC08B1FDF731FC00BF48
:1036B0004848A063846300BF002205212720FEF74D
:1036C00075FE2720FEF762FE79E0434920688842B4
:1036D00075D100BF002000903B48001D006840F0FD
:1036E00020003949091D08600846006800F02000E4
:1036F000009000BF00BF00BF00200090324810388B
:10370000006840F040003049103908600846006801
:1037100000F04000009000BF00BF4FF484400190D3
:1037200002200290002003900320049008200590BE
:1037300001A92A48FEF780FC29482A49086080052B
:103740004860002127488160C1604FF480610161B9
:10375000002141618161C16101624162FEF7E6FBC6
:1037600008B1FDF7D5FB00BF1E48A063846300BF0E
:103770001B4878301C4908604FF0206048604021A9
:10378000194881600021C1604FF48061016100210E
:1037900041618161C16101624162FEF7C7FB08B10D
:1037A000FDF7B6FB00BF10486063846300BF0022D2
:1037B00005214720FEF7FAFD4720FEF7E7FD06B09A
:1037C00010BD0000004800404038024000080240A0
:1037D0002860024024070020001401400018024025
:1037E0002864024084070020E407002070477047E7
:1037F00070B504460D46611904F580700A68C4F876
:1038000000214A68C4F804210989A4F808110A2192
:1038100001F004FD012809D140F20711095D84F887
:10382000B611002140F2B710015503E0012140F22A
:10383000B710015570BD00BFFEE770B504460D46D8
:103840006119272204F58070FCF74DFD272104F54E
:10385000807001F0E3FC01280BD11E2204F2071155
:1038600004F2D310FCF73FFD002140F2D9100155BE
:1038700003E0012140F2D910015570BD10B50F4889
:103880000F4908600320486000210D488160C16035
:103890004FF4102101614FF40011416100210176C4
:1038A0000121417681760021C17601774177FDF7CC
:1038B000F8FF08B1FDF72CFB10BD000000640040CC
:1038C000EC04002010B50F480F4908600320486041
:1038D00000210D488160C1604FF4102101614FF457
:1038E000001141610021017601214176817600219C
:1038F000C17601774177FDF7D4FF08B1FDF708FBEA
:1039000010BD0000006800401405002008B500BF8D
:10391000002000902248006840F4800020490860A0
:103920000846006800F48000009000BF00BF00BFA0
:10393000002000900846006840F400100860084627
:10394000006800F40010009000BF00BF00220521B5
:103950000C20FEF72BFD0C20FEF718FD00220521A0
:103960003820FEF723FD3820FEF710FD0022052148
:103970003920FEF71BFD3920FEF708FD0022052146
:103980003B20FEF713FD3B20FEF700FD0022052142
:103990004520FEF70BFD4520FEF7F8FC08BD0000B2
:1039A0003038024000B58FB01C220C4908A8FCF743
:1039B0009AFC002108A801F0B5FF094908601C2203
:1039C00006491C3101A8FCF78EFC002101A801F07A
:1039D000A9FF044908600FB000BD0000006A00089C
:1039E000000000200400002000B587B0142102A8C8
:1039F000FCF792FC00BF002001905148006840F0A5
:103A000002004F4908600846006800F0020001907B
:103A100000BF00BF00BF002001900846006840F0D2
:103A2000400008600846006800F04000019000BFB8
:103A300000BF00BF002001900846006840F0010070
:103A400008600846006800F00100019000BF00BF58
:103A500000BF002001900846006840F008000860A0
:103A60000846006800F00800019000BF00BF00BFDA
:103A7000002001900846006840F0040008600846F5
:103A8000006800F00400019000BF00BF00BF0020EC
:103A900001900846006840F0800008600846006811
:103AA00000F08000019000BF00BF00BF0020019027
:103AB0000846006840F0200008600846006800F0F2
:103AC0002000019000BF00BF012210211D48FEF719
:103AD000ADFB012211461C48FEF7A8FB1020029006
:103AE0000120039004900220059002A91548FEF7DA
:103AF000A3FA302002904FF40410039001200490A8
:103B000002A91248FEF798FA01200290039004904F
:103B10000220059002A90C48FEF78EFA002205212A
:103B20000A20FEF743FC0A20FEF730FC00220521A4
:103B30001720FEF73BFC1720FEF728FC07B000BD5E
:103B400030380240000002400004024000080240F9
:103B500010B50F480F4908604FF48270486000218B
:103B60000C488160C160022101610121416149026B
:103B700081611021C16100210162416281620A21DB
:103B8000C162FFF715F808B1FDF7C2F910BD0000DA
:103B9000003001403C05002000B587B01C2168467C
:103BA000FCF7BAFB15481649086000204860002160
:103BB000134881604FF6FF71C1600021016181618E
:103BC000FFF702F908B1FDF7A3F90D48FFF729FB4C
:103BD00008B1FDF79DF9602000900020019002904F
:103BE0000490002269460648FFF799FA08B1FDF7EC
:103BF0008FF90348FFF760FA07B000BD00440140A9
:103C00005406002010B50B480B4908600B4848606B
:103C1000002109488160C1604FF4806101610C217D
:103C2000416100218161C161FFF7B0FC08B1FDF77E
:103C30006FF910BD004800409C060020A0860100DE
:103C400010B50B480B4908604FF4E1304860002183
:103C500008488160C16001610C21416100218161DE
:103C6000C161FFF793FC08B1FDF752F910BD0000E8
:103C700000140140E006002000BFFEE700BFFEE7A1
:103C8000704770B504460D466119192204F580701D
:103C9000FCF729FB192104F5807001F0BFFA012817
:103CA0000BD1102204F2071104F5C870FCF71BFBBE
:103CB00000214FF4D070015503E001214FF4D07082
:103CC000015570BD10B52DED028B0446B0EE408A53
:103CD000F0EE608A18EE100AE060B4F8480000F4D4
:103CE000807010B1204601F0ADFB18EE900AA06183
:103CF000E06800EE100AA06900EE900A30EE600A5B
:103D000010EE100AE063E06B00EE100A206C00EE8B
:103D1000900A30EE600A10EE100A2063E06B00EEAD
:103D2000100AB5EEC00AF1EE10FA03DDE06B00EE0A
:103D3000100A04E0E06B00EE100AB1EE400A206DBC
:103D400000EE900AB4EEE00AF1EE10FA7DDDE06BD1
:103D500000EE100A206800EE900A20EE200A10EE15
:103D6000100A2062E06900EE100AE06B00EE900A93
:103D700030EE200A10EE100AE06194F8480000F0DE
:103D8000080018B1204601F0BEFA0AE0A06800EE73
:103D9000100A206B00EE900A20EE200A10EE100AA6
:103DA000A06294F8480000F0200010B12046FCF713
:103DB00089FE94F8480000F0020010B1204601F09E
:103DC000DCFA606800EE100AE06900EE900A20EE6E
:103DD000200A10EE100A606294F8480000F010000B
:103DE00010B1204601F010FB94F8480000F080006C
:103DF00048B1A06A00EE100A04F1680001F0A0FCCE
:103E000010EE100AA062206A00EE100A606A00EE4E
:103E1000900A70EE200AA06A00EE100A30EE800AC6
:103E200010EE100AE06294F8480000F0400048B13B
:103E3000E06A00EE100A04F1780001F081FC10EE57
:103E4000100AE06294F8480000E006E000F0040088
:103E500030B1204601F0B4FA02E0204601F092FDB4
:103E6000A0696061E0682061206B6063E06B2064A2
:103E7000E06A00EE100ABDEC028B10BD70B52DEDAE
:103E8000048B0446B0EE408AF0EE608AB0EE419AB0
:103E90000D4690212046FCF73FFA0020C4F88C0024
:103EA00018EE100A206018EE900A606019EE100AF1
:103EB000A060A564BDEC048B70BD10291CD008DC8B
:103EC00009293DD2DFE801F00F33103C1F3C3C3C98
:103ED0001400202920D0402919D0802923D0B1F501
:103EE000807F2DD127E0704710EE102AC264FAE7D8
:103EF00010EE102A4266F6E710EE102A426510EE28
:103F0000902A8265EFE710EE102A4264EBE710EE8C
:103F1000102AC0F88420E6E710EE102AC26510EEE1
:103F2000902A0266DFE710EE102A4267DBE710EE08
:103F3000102A0265D7E710EE102AC0F88820D2E7D1
:103F400000BFD0E770B505460C4602F049F8287866
:103F5000697840EA0120C0F30A0020806878C01028
:103F6000A97840EA4110C0F30A006080A878801167
:103F7000E97840EA8100297940EA8120C0F30A000B
:103F8000A08028794010697940EAC110C0F30A0086
:103F9000E080687900118008A0726879C0F3011090
:103FA000E072A879E97940EA012000B2A081287A7C
:103FB000697A40EA012001B2E181A87AE97A40EA0F
:103FC000012001B22182297BA174697BE174A87B65
:103FD000E97B40EA0120A082287C697C40EA01203C
:103FE00000B220812088A0F5806000B22080608827
:103FF000A0F5806000B26080A088A0F5806000B26B
:10400000A080E088A0F5806000B2E0802089A0F563
:10401000806000B22081B4F90000052101F0D6FFD4
:104020002080B4F90200052101F0D0FF6080B4F9CE
:104030000400052101F0CAFFA080B4F906000521A3
:1040400001F0C4FFE080002070BD00000048704710
:104050009047002030B50468646944F04004056866
:104060006C610468E46844F010040568EC60846BDB
:104070002468246824F00104856B2D682C6007E017
:10408000846B2468246824F00104856B2D682C60FF
:10409000846B2468246804F00104002CF0D10468C7
:1040A000241D856B2D68AC60846B2468E160846B93
:1040B00024682261846B24686360846B24682468AC
:1040C00044F48024856B2D682C60846B24682468FC
:1040D00044F00104856B2D682C6030BD38B5044672
:1040E0002068006800F0200050B100BF0020009060
:1040F00020680068009020684068009000BF6EE073
:104100002068006800F01000002868D000BF002080
:10411000009020680068009020684068009000BF10
:1041200000BFA06B0068006800F4002058BBA06BC3
:104130000068006820F00100A16B09680860A06BAE
:1041400000684068C0F12400254908802420A16B44
:1041500009684860A06B0068006840F40020A16B0B
:1041600009680860A06B0068006840F00100A16B5E
:10417000096808601A480088122830D119491A487D
:10418000FFF7E0FE2BE0A06B0068006820F0010064
:10419000A16B09680860A06B00684068C0F124004A
:1041A0000F4908802420A16B09684860A06B006853
:1041B000006820F40020A16B09680860A06B00680B
:1041C000006840F00100A16B09680860044800889D
:1041D000122804D1034904482430FFF7B3FE38BD48
:1041E000FC01002090470020A847002038B5044675
:1041F0002068006800F0200050B100BF002000904F
:1042000020680068009020684068009000BF88E047
:104210002068006800F010000028F8D000BF0020DF
:10422000009020680068009020684068009000BFFF
:1042300000BFA06B0068006800F40020C0BBA06B4A
:104240000068006820F00100A16B09680860A06B9D
:1042500000684068C0F58070324908804FF4807073
:10426000A16B09684860A06B0068006840F40020FA
:10427000A16B09680860A06B0068006840F001004D
:10428000A16B096808602748008800B22649A1F898
:104290002D01002004E02549095C234A1154401CEB
:1042A000204909888842F6DB1F4800F056F938E0BB
:1042B000FFE7A06B0068006820F00100A16B0968AF
:1042C0000860A06B00684068C0F5807015490880E0
:1042D0004FF48070A16B09684860A06B00680068AB
:1042E00020F40020A16B09680860A06B00680068DA
:1042F00040F00100A16B096808600A48008800B21C
:104300000949A1F82D01002004E00949095C064A89
:104310001154401C034909888842F6DB024800F02A
:104320001CF938BD000200204E4C00204E490020F0
:104330004E4A002070B504460D4661194FF4857051
:104340000A68C4F800214A68C4F804210A89A4F85C
:104350000821897A01550B2104F5807000F05EFF79
:1043600001280AD104F58070B4F80711A4F86F1180
:10437000002140F27110015503E0012140F271105B
:10438000015570BD70B504460D4661190D2204F546
:104390008070FBF7A8FF0D2104F5807000F03EFF50
:1043A000012808D1D4F80711C4F8C711002140F240
:1043B000CB10015503E0012140F2CB10015570BD37
:1043C00000200149087070472402002010B5012028
:1043D0001649087016484088154988801548407865
:1043E0001449097840EA012000B211494880114877
:1043F000C0781049897840EA012000B20C49088051
:104400000C4840790B49097940EA012000B208497B
:1044100008810848807988710A46B2F90010B2F91B
:104420000200054AFCF764FA10BD000024020020D7
:10443000524E002010020020F047002070B50446C4
:104440000D46611904F580700A68C4F800214A68B5
:10445000C4F804210989A4F808110A2100F0DEFE3D
:10446000012809D140F20711095D84F8B211002139
:1044700040F2B310015503E0012140F2B3100155A1
:1044800070BD70B504460D466119292204F580708F
:10449000FBF729FF292104F5807000F0BFFE0128F9
:1044A00015D140F21111D4F807214FF4A670C4F8C9
:1044B0004221D4F80B21C4F84621B4F80F21A4F806
:1044C0004A21095D0155002184F8621102E00121B1
:1044D00084F8621170BD70B504460D466119192249
:1044E00004F58070FBF7FFFE192104F5807000F0E1
:1044F00095FE01280BD1102204F2071104F2A1103D
:10450000FBF7F1FE002140F2B110015503E001215B
:1045100040F2B110015570BD70B504460D466119E9
:10452000242204F58070FBF7DEFE242104F5807060
:1045300000F074FE01280BD11B2204F2071104F5D0
:10454000BA70FBF7D0FE002140F28F10015503E056
:10455000012140F28F10015570BD70B50546002451
:1045600005E1285DA52873D10521284600F076FED7
:104570000128F8D1601C295CA01C285C41EA0020BD
:1045800000B2A5F82F01601D295CA01D285C41EA3E
:10459000002000B2A5F83101B5F93101B0F5017F75
:1045A0006FD01CDCB0F5827F5BD00DDC03283FD0E0
:1045B00004DC01282BD0022874D130E0A0F20110D5
:1045C000A8B30128F8D144E0A0F20510002850D08B
:1045D000FC2857D0FD285DD0FE28EDD163E040F2E5
:1045E0000A22811A904276D008DCA0F20520052824
:1045F00058D2DFE800F068747C848C00F8296BD016
:10460000F9296AD0FA2969D0FB29D5D1A3E021463E
:104610002846FCF753FD04F11C00C4B2A4E0214677
:104620002846FCF71BFD04F10900C4B29CE007E03A
:1046300021462846FFF725FF04F12800C4B293E085
:1046400021462846FCF7FAFB04F10C00C4B28BE0CB
:104650008BE02146284600F0B7F804F10C00C4B204
:1046600082E021462846FFF765FE04F10A00C4B245
:104670007AE021462846FCF7AFFA04F10900C4B2FB
:1046800072E018E021462846FFF746FF04F12300B8
:10469000C4B269E021462846FFF7F3FA04F1180096
:1046A000C4B261E05FE021462846FFF714FF04F141
:1046B0001800C4B258E021462846FFF7BFFE04F1B7
:1046C0000900C4B250E02146284600F069FD04F11B
:1046D0000A00C4B248E022E029E030E037E0214699
:1046E0002846FFF785F804F10900C4B23CE02146F2
:1046F000284600F042F804F10F00C4B234E021462D
:104700002846FBF77AFE04F10E00C4B22CE02146E5
:104710002846FFF737FE04F10C00C4B224E021461E
:104720002846FCF735FA04F10E00C4B21CE021461D
:104730002846FFF782F804F12600C4B214E02146AF
:104740002846FCF761F904F11700C4B20CE004F14B
:104750001400C4B208E021462846FCF776F904F1BB
:104760001200C4B200E000BF00BF601CC4B2B5F9C3
:104770002D01A0423FF7F5AE70BD70B504460D4661
:104780006119102204F58070FBF7ADFD102104F5CE
:10479000807000F043FD012811D140F20D11D4F8D2
:1047A0000721C4F8B821B4F80B21A4F8BC21095D95
:1047B00084F8BE11002140F2BF10015503E0012131
:1047C00040F2BF10015570BD70B504460D46611929
:1047D0000D2204F58070FBF786FD0D2104F5807035
:1047E00000F01CFD012808D1D4F80711C4F86A11A3
:1047F00000214FF4B770015503E001214FF4B77069
:10480000015570BD10B504460948007870B10848DC
:104810000078401E0649087006480460042001F034
:1048200015F80549086000200968086010BD0000FF
:10483000E4010020DC010020E001002070B5054605
:104840000B48006804680FE029462046FBF76FFD1F
:1048500048B90020606384F83C0084F83D00606C37
:104860008047012070BDA46C002CEDD10020F9E739
:10487000E00100202DE9F04706460F469046994694
:104880000120FFF7BFFF4C2000F0E0FF0446124874
:104890000068056831462046FBF757FDA7630020F6
:1048A000606384F83C0084F83D00C4F84080C4F89C
:1048B0004490A06408480068006828B90648006869
:1048C00004602046BDE8F08700E0AD6CA86C0028CD
:1048D000FBD1AC642046F5E7E001002010B50446AA
:1048E00040F201403349086000208860C860082019
:1048F0000861314800688088000A304908702E48F5
:104900000068007948702C480068C088000A8870E8
:10491000294800688079C870012C02D101200871F3
:1049200002E000202549087123480068808A0012AF
:104930002249487120480068007D8871AA20C8710A
:104940001F4B0A461B491F48FCF789FC40F20740F1
:104950001849086000208860C8600820086116486F
:1049600000688089000A1549087013480068007BB8
:10497000487011480068C089000A88700E480068B5
:10498000807BC8700C480068807C08710A48006809
:10499000C07C487108480068C07A88710A4800687D
:1049A00090F88A01C871064B0A4602490548FCF78F
:1049B00056FC10BD804F0020480200203802002025
:1049C00034020020140500204402002000BF012012
:1049D00000F097FFFBE7000010B500BF502080F308
:1049E0001188BFF34F8FBFF36F8F00BF01F0E2FE5E
:1049F00018B14FF080500449086000BF002080F3D8
:104A0000118800BF10BD000004ED00E000B593B0B8
:104A1000302107A8FBF780FC142102A8FBF77CFCDF
:104A200000BF002001902448006840F080502249D7
:104A300008600846006800F08050019000BF00BF89
:104A400000BF002001901D48006840F480401B49D1
:104A500008600846006800F48040019000BF00BF75
:104A6000012007900004089002200D9041050E914E
:104A700006210F91A8211091022111910421129178
:104A800007A8FDF747FE08B1FCF742FA0F20029095
:104A900002200390002004904FF4A05005904FF4A2
:104AA00080500690052102A8FDF7D2FC08B1FCF762
:104AB0002FFA13B000BD00004038024000700040E3
:104AC0000348006840F47000014908607047000026
:104AD00088ED00E010B50348FEF723FA0248FEF720
:104AE00020FA10BD440800205406002010B50268CA
:104AF000294B98420ED0B0F1804F0BD0274B9842F3
:104B000008D0274B984205D0264B984202D0264B1E
:104B1000984203D122F070024B681A431E4B984210
:104B200020D0B0F1804F1DD01C4B98421AD01C4BA6
:104B3000984217D01B4B984214D01B4B984211D06F
:104B40001A4B98420ED01A4B98420BD0194B9842F0
:104B500008D0194B984205D0184B984202D0184BF8
:104B6000984203D122F44072CB681A4322F08003AA
:104B70004C6943EA040202608B68C3620B6883627B
:104B8000054B984202D0084B984201D10B69036350
:104B90000123436110BD00000000014000040040FB
:104BA00000080040000C00400004014000400140AB
:104BB000004401400048014000180040001C004033
:104BC0000020004030B5056A25F001050562026A43
:104BD0004368846924F0700424F003040D682C43B6
:104BE00022F002028D682A43104DA84200D103E052
:104BF0000F4DA84206D100BF22F00802CD682A431B
:104C000022F00402094DA84202D0094DA84207D162
:104C100023F4807323F400734D692B438D692B4378
:104C2000436084614D684563026230BD000001400D
:104C30000004014030B5056A25F010050562026ADE
:104C40004368846924F4E04424F440740D6844EA21
:104C5000052422F020028D6842EA0512124DA84276
:104C600000D103E0114DA84207D100BF22F080021D
:104C7000CD6842EA051222F040020B4DA84202D054
:104C80000A4DA84209D123F4806323F400634D69DF
:104C900043EA85038D6943EA8503436084614D6877
:104CA0008563026230BD0000000001400004014045
:104CB00030B5056A25F480750562026A4368C469E7
:104CC00024F0700424F003040D682C4322F40072D5
:104CD0008D6842EA0522124DA84200D103E0114D31
:104CE000A84207D100BF22F40062CD6842EA052243
:104CF00022F480620A4DA84202D00A4DA84209D18E
:104D000023F4805323F400534D6943EA05138D695E
:104D100043EA05134360C4614D68C563026230BD58
:104D2000000001400004014030B5056A25F48055BB
:104D30000562036A4468C26922F4E04222F44072C8
:104D40000D6842EA052223F400538D6843EA0533D7
:104D5000084DA84202D0084DA84204D124F4804452
:104D60004D6944EA85144460C2614D68056403627C
:104D700030BD0000000001400004014070B5054650
:104D8000AC6B0020E085E0842046FEF78DFA70BD14
:104D900000BF00BF02680C3252E8002F22F490716D
:104DA00002680C3242E80013002BF3D100BF00BFB1
:104DB00000BF0268143252E8002F22F0010102689D
:104DC000143242E80013002BF3D100BF016B01291C
:104DD0000ED100BF00BF02680C3252E8002F22F053
:104DE000100102680C3242E80013002BF3D100BF1F
:104DF000202180F83E1000210163704710B5044661
:104E00002068C06820F040002168C860202084F835
:104E10003D002046FEF7EBFC002010BDF8B504462F
:104E200094F83E00222873D1A068B0F5805F0CD1C1
:104E3000206950B90025A66A20684068C0F30800C0
:104E40003080A06A801CA06215E0A56A0026A068D8
:104E5000B0F5805F03D0A06828B9206918B9206830
:104E60004068287004E02068406800F07F002870E7
:104E7000A06A401CA062E08D401E80B2E085002840
:104E800044D12068C06820F020002168C8602068F4
:104E9000C06820F480702168C8602068406920F0F4
:104EA000010021684861202084F83E00206B012821
:104EB00026D10020206300BF00BF21680C3151E8DB
:104EC000001F21F0100021680C3141E80002002A87
:104ED000F3D100BF2068006800F0100010280AD14C
:104EE00000BF0020009020680068009020684068A3
:104EF000009000BF00BFA18D2046FEF7D4F902E06C
:104F00002046FEF773FC0020F8BD01E00020FBE71F
:104F10000220F9E72DE9F84F04462068006920F4E3
:104F20004050E1680843216808612169A06808438E
:104F300061690843E169084300902068C06849F24C
:104F40000C618843009908432168C8602068406963
:104F500020F44070A16908432168486176492068BF
:104F6000884203D075492068884203D1FDF76AFB67
:104F7000814602E0FDF756FB8146E069B0F5004F3F
:104F80006CD102206168A0FB015003461920A9FBE7
:104F9000007001462A463846FBF774F96421B0FBDD
:104FA000F1F04FEA001A02206168A0FB01510B46A4
:104FB0001920A9FB00712A463846FBF763F983469E
:104FC00002206168A0FB015003461920A9FB007173
:104FD0002A463846FBF756F96421B0FBF1F000EBA6
:104FE000C00101EB0010ABEB8000322101EBC000EF
:104FF0006421B0FBF1F000F0F8000AEB400A022057
:105000006168A0FB015003461920A9FB007001460E
:105010002A463846FBF736F9834602206168A0FB32
:10502000015003461920A9FB00712A463846FBF7B8
:1050300029F96421B0FBF1F000EBC00101EB001095
:10504000ABEB8000322101EBC0006421B0FBF1F03A
:1050500000F007005044216888606AE0042061681D
:10506000A0FB015003461920A9FB007001462A4607
:105070003846FBF707F9824604206168A0FB01501F
:1050800003461920A9FB007001462A463846FBF763
:10509000F9F86421B0FBF1F000EBC00101EB001066
:1050A000AAEB8000322101EB00106421B0FBF1F08B
:1050B00000F0F00A04206168A0FB0170034619208B
:1050C000A9FB00513A462846FBF7DCF86421B0FB07
:1050D000F1F00AEB001A04206168A0FB01510B46B5
:1050E0001920A9FB00712A463846FBF7CBF8834606
:1050F00004206168A0FB015003461920A9FB007041
:1051000001462A463846FBF7BDF86421B0FBF1F0B2
:1051100000EBC00101EB0010ABEB8000322101EB92
:1051200000106421B0FBF1F000F00F005044216842
:105130008860BDE8F88F00000010014000140140B5
:10514000014691F83D00212828D18868B0F5805F9C
:105150000BD1086948B90A6A1088C0F308000B68C7
:105160005860086A801C086205E00B6A581C0862D7
:1051700018780B685860C88C401E80B2C88458B933
:105180000868C06820F080000B68D8600868C068B4
:1051900040F040000B68D860002070470220FCE718
:1051A00070B504460D4661194FF485700A68C4F85D
:1051B00000214A68C4F804210A89A4F80821897AE0
:1051C00001550B2104F5807000F028F801280AD160
:1051D00004F5C070B4F80711A4F8B411002140F22E
:1051E000B510015503E0012140F2B510015570BD25
:1051F00010B5FBF707FE0248FEF758F810BD000097
:105200009C06002010B50348FEF7F0FF0148FEF7AA
:105210004DF810BDE006002000BFFEE770B5054662
:105220000C4600260DB1022C01D8002070BDA11E35
:10523000094802882846FBF76DFF0646F1B2A01E1A
:10524000285C814206D1601E285CB0EB162F01D18C
:105250000120EBE70020E9E70202002070B50546D7
:105260000C4600260DB1022C01D8002070BD611E35
:10527000FF222846FBF768FF0646601E285CB04206
:1052800001D10120F2E70020F0E7000002480068A9
:10529000C0F30220704700000CED00E010B50028BC
:1052A00004DB0A07130E054A135406E00A07140E1E
:1052B000034A00F00F031B1FD45410BD00E400E0AC
:1052C00018ED00E002E008C8121F08C1002AFAD158
:1052D00070477047002001E001C1121F002AFBD176
:1052E000704701EBD1735B105B42834202DD4A1EC3
:1052F000024410B201EBD173B0EB630F02DD4A1E22
:10530000821A10B27047016802EE101A416E02EE66
:10531000901A816803EE101A02EE832AF0EE420A18
:10532000816802EE101AC2EE202AB0EE620A81688D
:1053300002EE101A016802EE901A32EE222AC2EE34
:10534000202AF0EE621A416E02EE101A22EE002AB6
:10535000B0EE421A816A02EE101A22EE012A816929
:1053600002EE901A01EEA22A416902EE901A00EEB6
:10537000222A12EE101A81627047C16900EE101ADB
:10538000C16C00EE901AB4EEE00AF1EE10FA01DD05
:10539000C16CC161C16900EE101AC16C00EE901AB7
:1053A000F1EE600AB4EEE00AF1EE10FA07D2C16C39
:1053B00000EE101AB1EE400A10EE101AC1617047EB
:1053C000C16A00EE101A416C00EE901AB4EEE00AC9
:1053D000F1EE10FA01DD416CC162C16A00EE101AF3
:1053E000416C00EE901AF1EE600AB4EEE00AF1EEC4
:1053F00010FA07D2416C00EE101AB1EE400A10EE1E
:10540000101AC16270470000816D00EE101AC16B66
:1054100000EE901AB4EEE00AF1EE10FA0FDDC16B67
:1054200000EE101A416D00EE901AB4EEE00AF1EEB3
:1054300010FA04D29FED020A10EE101A4162704772
:1054400000000000DFED310AB0EE600A016900EEF5
:10545000901AC16801EE101A70EEC10AF5EEC00A8A
:10546000F1EE10FA08DD016900EE901AC16801EE54
:10547000101A70EEC10A09E0016900EE901AC168C5
:1054800001EE101A70EEC10AF1EE600AD0F8881031
:1054900001EE101AF4EEC10AF1EE10FA00D87047CE
:1054A000016900EE901AC16801EE101A70EEC10A8F
:1054B000F5EEC00AF1EE10FA04DDFFEE000AB0EEE0
:1054C000600A15E0016900EE901AC16801EE101A39
:1054D00070EEC10AF5EEC00AF1EE10FA04D2F7EE52
:1054E000000AB0EE600A03E0DFED080AB0EE600AE1
:1054F000016900EE901AD0F8881001EE101A40EE03
:10550000010A10EE901AC16000BFC8E70000000059
:1055100010B5FBF7C3FA00F035F92149086040F2F5
:105520000520FBF767FE1E498860084681799FEDDC
:105530001D0A0420FBF71AFE1949C86004219FEDDB
:10554000191ADFED180AB7EE000A15481030FEF7F9
:1055500095FCDFED140A9FED140A04211048103069
:10556000FEF7ABFC06219FED111ADFED110A9FED4E
:10557000110A0B48A030FEF781FCDFED0A0A9FED0F
:105580000A0A04210648A030FEF797FCDFED050A61
:105590009FED090A02210248A030FEF78EFC10BDE3
:1055A0009C0000200000000000409C460000C84213
:1055B0009A99993ECDCC4C3F0000164310B55B48FC
:1055C000006890F82C00022828D15948007801285A
:1055D0000FD1002056490870564908705348D0F83A
:1055E000340100F510405149C1F8340100205249FE
:1055F000088051480088401C4F49088008460088B0
:10560000B0F57A6F34DD01204949087049490870C6
:1056100003204649096881F82C0029E043480068C6
:1056200090F82C0003281DD14148007801281FD193
:1056300000203F4908703F480078012809D13B48C5
:10564000C0680068A0F59C4020383849C1F8340192
:105650000EE03648D0F83401A0F510403349C1F8C7
:10566000340105E03148006890F82C003349087097
:105670002E48006890F82C00022811D12B48C068F1
:1056800001682A48D0F83401A0F57A60814207DD2C
:1056900000202649096881F82C000120244908705F
:1056A0002248006890F82C0003281CD11F48C068CD
:1056B00001681E48D0F8340100F57A60814212DAA0
:1056C0001C480078012805D102201849096881F892
:1056D0002C0005E0194800781449096881F82C006D
:1056E00001201349087011488068B0F9000001EEEC
:1056F000900AF8EEE11AB0EE611A0C48C068006832
:1057000001EE900AF8EEE11AF0EE610A0748D0EDDA
:105710004D1AF8EEE11AB0EE610A00F1A001103066
:1057200000F0CAF80149A1F8300110BD9C0000202A
:10573000D5010020D6010020D8010020D40100208E
:10574000F0EE400A10EE901A0160016800EE101AA7
:10575000C16801EE101A20EE010A01EE101AF7EEF0
:10576000001A71EEC11A416801EE101A01EE810AA9
:1057700010EE101A816081684160816800EE101A95
:105780007047000010B5054801780078401C034AB6
:10579000107009B9FBF782F9014810BD84000020A0
:1057A0007C450020004870473C46002010B588B07A
:1057B000044600F0B9FCFAF79FFEFBF733F8FBF75D
:1057C00005FBFBF72DFB1C220A4901A8FAF78BFD0C
:1057D000002101A800F0A6F8074908600748006802
:1057E00000F07EFD0648006800F07AFD00F0C6FC7F
:1057F00008B010BD586A0008EC0100200400002029
:1058000000000020FCF72AFDFFF700F9FEF7ECF896
:10581000FEF77CF8FEF732F8FEF754F8FEF798F939
:10582000FEF7BAF9FEF7EEF9FEF70AFAA820FBF741
:105830008FFAFEF7B7F800F070F800BFFEE70146F8
:105840000020842901D0CA1C10447047F0B50B30E9
:10585000154D20F007010024144A0FE003688B4225
:105860000BD38B4205D95E1A43184768C3E900671A
:1058700000E04368136002C004E0021D10680028C5
:10588000ECD12046002802D1286808B10020F0BDE4
:10589000064A07481060074A121A22F00702C0E9B8
:1058A000002401202860D7E7940200209002002005
:1058B0009C4F0020986F002070B52DED048B04469E
:1058C0000D46F0EE408AB0EE609AB0EE418AF0EEFE
:1058D000490AB0EE680A2846FEF7F4F910EE100AFD
:1058E000E060E06800EE100AF0EE480A2046FEF79D
:1058F000E9F9BDEEC00A10EE100A00B2BDEC048B4F
:1059000070BD70B5044625460DB1294600E0012161
:10591000084600F0B7FC002070BD10B500F05AFD3D
:10592000002010BD7FB504460D46606998B1A0699E
:1059300088B1B4F90800FFF782FF0646D4E90510E4
:10594000CDE9006102902B462269D4E9001000F0F5
:10595000CDFE039013E0B4F90800FFF770FF064690
:1059600003A8CDE90060238A9AB22B46D4E900103F
:1059700000F08AFE012802D0002004B070BD039818
:10598000FBE700009FED120A10EE101A0164C163DC
:105990009FED0F0A10EE101A8163416301639FEDC2
:1059A0000C0A10EE101AC161816241620162C1628B
:1059B0009FED070A10EE101A01614161C16081611B
:1059C0009FED030A10EE101AC167C1667047000010
:1059D000000000002DE9F04105460E461C4807680E
:1059E0001C480068001D00F049FB50B919480068C8
:1059F00090F82C1001208840174909688143164807
:105A00000160681C38B936B112480168091D134895
:105A100000F07EFB1AE07C190E4800684460BC422E
:105A200007D20C480168091D0D48006800F056FBBC
:105A30000CE008480168091D0A48006800F04EFBA8
:105A400009480068844201D207480460BDE8F0813B
:105A5000300000201C0000203400002068090020D5
:105A600024000020200000204C00002010B5044637
:105A700000F05AFB23480068401C22490860224875
:105A8000006840B9204804600846006801280DD12C
:105A900000F03EF90AE01D48006838B91A4800686D
:105AA000C06AE16A884201D8174804601848006853
:105AB000401C1749086094F82C10012088401549B3
:105AC0000968084313490860E16A01EB8101124A41
:105AD00002EB8100211D00F01BFB00F04FFB0B4887
