:020000040800F2
:10000000E8B80020310300089D530008514900085A
:1000100099530008C7090008E9960008000000008D
:100020000000000000000000000000007102000855
:10003000890E000800000000CD020008A16400083D
:100040004B0300084B0300084B0300084B03000858
:100050004B0300084B0300084B0300084B03000848
:100060004B0300084B030008B90E00084B030008BF
:10007000F10C00084B0300084B0300084B03000879
:100080004B0300084B0300084B0300084B03000818
:10009000CD0900084B0300084B030008C30E0008FD
:1000A0004B0300089D6500084B0300084B03000844
:1000B0004B0300084B0300084B0300084B030008E8
:1000C0004B0300084B0300084B0300084B030008D8
:1000D0004B0300084B0300084B030008E16C0008C9
:1000E0004B0300084B0300084B0300084B030008B8
:1000F0004B0300084B0300084B0300084B030008A8
:100100004B0300084B0300084B0300084B03000897
:100110004B0300084B0300084B0300084B03000887
:10012000010D0008110D00084B030008210D000807
:100130004B0300084B0300084B0300084B03000867
:10014000190A00084B0300084B030008A1530008DC
:100150004B030008310D00084B030008F56C000844
:100160004B0300084B0300084B0300084B03000837
:100170004B0300084B0300084B030008000000007D
:100180004B0300084B03000800F002F800F060F891
:100190000AA090E8000C82448344AAF10107DA45E2
:1001A00001D100F055F8AFF2090EBAE80F0013F0D4
:1001B000010F18BFFB1A43F00103184788C3000062
:1001C000A8C300000A444FF0000C10F8013B13F0E4
:1001D000070408BF10F8014B1D1108BF10F8015BA0
:1001E000641E05D010F8016B641E01F8016BF9D193
:1001F00013F0080F1EBF10F8014BAD1C0C1B09D1EA
:100200006D1E58BF01F801CBFAD505E014F8016B5B
:1002100001F8016B6D1EF9D59142D6D370470000ED
:100220000023002400250026103A28BF78C1FBD8FF
:10023000520728BF30C148BF0B6070471FB50BF095
:10024000B1FF9DE8030000F03FFA1FBD10B510BDDF
:1002500000F0AEFA1146FFF7F1FF0AF0BBF900F02B
:10026000CCFA03B4FFF7F2FF03BC00F003FB00007D
:100270002C4B19680868B0E8F04F80F30988BFF389
:100280006F8F4FF0000080F311887047000000006E
:1002900008480068006880F308884FF0000080F389
:1002A000148862B661B6BFF34F8FBFF36F8F00DF64
:1002B00000BF00BF08ED00E0DFF80C00016841F46A
:1002C00070010160704700BF88ED00E0EFF3098026
:1002D000BFF36F8F134B1A681EF0100F08BF20ED8D
:1002E000108A20E9F04F106009B44FF0500080F3FD
:1002F0001188BFF34F8FBFF36F8F0AF0A7FF4FF046
:10030000000080F3118809BC19680868B0E8F04F54
:100310001EF0100F08BFB0EC108A80F30988BFF3FD
:100320006F8F70476C010020EFF30580704700006D
:100330000948804709480047FEE7FEE7FEE7FEE779
:10034000FEE7FEE7FEE7FEE7FEE7FEE704480549B5
:10035000054A064B704700008965000889010008BE
:10036000E8780020E8B80020E8980020E89800200D
:1003700070B5064600F08CF9056806F10B0020F018
:100380000704B4429CBF002070BD2B466A68BAB116
:100390001068A04210D304F1080188423CBF5068A5
:1003A000586007D35168101941601168091B01603A
:1003B00058601460101D70BD13465268002AE7D1C2
:1003C0002146284600F06CF90028DED170BD70B5DA
:1003D0000446051F00F05CF90068002C14BF446857
:1003E00070BD002C18BFAC423CBF20466468F8D3F7
:1003F00001680A18AA4218BF456003D12A68054659
:100400001144016028684119A1421CBF6C6070BD95
:100410006168696021680844286070BD53EA020C75
:1004200000F069802DE9F04B4FF00006002B1FBF54
:10043000B3FA83F503FA05F424FA05F65E4012BF19
:100440001643B2FA82F502FA05F4C5F120051EBF83
:1004500022FA05FC44EA0C04203556EA044C4FEA23
:10046000144418BF641C4FF000084FF0000990427C
:1004700071EB030C39D3002919BFB1FA81F701FAE6
:1004800007F6B0FA80F700FA07F6C7F120071EBF9B
:1004900020FA07FC46EA0C062037B6FBF4FCA7EB73
:1004A0000507103F07F01F0BCBF120060CFA0BFBE2
:1004B0002CFA06F644BFB3460026202FA4BF5E46A2
:1004C0004FF0000B5BEA060C08BF4FF0010B19EB75
:1004D0000B09ABFB027C48EB0608C01B06FB02CCF9
:1004E0000BFB03CC71EB0C01C1E70B460246414606
:1004F0004846BDE8F08B13B54FF000004FF0000107
:10050000AFF30080BDE81C407047032A40F2308002
:1005100010F0030C00F0158011F8013BBCF1020F44
:10052000624498BF11F801CB00F8013B38BF11F8C5
:10053000013BA2F1040298BF00F801CB38BF00F8DC
:10054000013B11F0030300F02580083AC0F0088059
:1005500051F8043B083A51F804CBA0E80810F5E73D
:10056000121D5CBF51F8043B40F8043BAFF3008020
:10057000D20724BF11F8013B11F801CB48BF11F895
:10058000012B24BF00F8013B00F801CB48BF00F865
:10059000012B704710B5203AC0F00B80B1E818501D
:1005A000203AA0E81850B1E81850A0E81850BFF45D
:1005B000F5AF5FEA027C24BFB1E81850A0E81850FC
:1005C00044BF18C918C0BDE810405FEA827C24BF50
:1005D00051F8043B40F8043B08BF7047D20728BFDE
:1005E00031F8023B48BF11F8012B28BF20F8023B2D
:1005F00048BF00F8012B70474FF000020429C0F0FB
:10060000128010F0030C00F01B80CCF1040CBCF144
:10061000020F18BF00F8012BA8BF20F8022BA1EB96
:100620000C0100F00DB85FEAC17C24BF00F8012B7B
:1006300000F8012B48BF00F8012B70474FF0000273
:1006400000B5134694469646203922BFA0E80C50C8
:10065000A0E80C50B1F12001BFF4F7AF090728BFA3
:10066000A0E80C5048BF0CC05DF804EB890028BF1F
:1006700040F8042B08BF704748BF20F8022B11F048
:10068000804F18BF00F8012B7047704770477047C4
:10069000004870478C78002070477047704770475B
:1006A00038B504460A4600206946AFF300800028AA
:1006B00008BF38BD02460099204600F03FF80120EF
:1006C00038BD012000F06CB8F8B5AFF300800546E6
:1006D00000200C46102000BF0646A819A0420DD9E4
:1006E000324669460020AFF30080070008BF00F0E3
:1006F00057F80098A04218BF0546C419FFF7C8FF75
:1007000005600746F01D20F007004619284600F056
:100710000AF8B44208BFF8BDA21B31463868BDE8EC
:10072000F84000F00BB800210160C0E901107047EB
:1007300010207047004870478478002003464068C6
:100740008C46002818BF88423CBF03464068F8D357
:1007500018681844884207D00CF1030020F0070005
:10076000001D411A521A0146081D0A60FFF72FBEEC
:100770001FB584B000200A9C06AB04AA02A900940D
:10078000AFF3008018B1DDE9020108B010BD0348E5
:10079000204000F040F800200146F6E70000207CF1
:1007A00010B500F03FF8BDE8104000F02FB87047DA
:1007B0007546FFF7BFFFAE4605006946534620F079
:1007C0000700854618B020B5FFF7C0FDBDE8204002
:1007D0004FF000064FF000074FF000084FF0000BFD
:1007E00021F00701AC46ACE8C009ACE8C009ACE8B0
:1007F000C009ACE8C0098D46704710B50446AFF398
:1008000000802046BDE81040FFF72BBD002801D036
:1008100000F030B8704710B500F04CF8BDE810405B
:10082000FFF7F4BF10B5012805D0002103A000F0A8
:1008300027F8012010BD09A1F8E7000053494752ED
:10084000544D454D3A204F7574206F6620686561A0
:1008500070206D656D6F7279000000003A20486568
:100860006170206D656D6F727920636F7272757043
:100870007465640001491820ABBEFEE72600020043
:1008800070B505460C460A2000E06D1C00F068F8C3
:1008900035B128780028F8D102E0641C00F060F837
:1008A00014B120780028F8D1BDE870400A2000F08B
:1008B00057B8000010B5022803D0410103D50DA19F
:1008C00012E0002010BD010101D50FA10CE0C10014
:1008D00001D511A108E0810001D512A104E040007A
:1008E00001D513A100E0002115A0FFF7C9FF0120E9
:1008F00010BD0000496E76616C6964204F706572AE
:100900006174696F6E000000446976696465204215
:1009100079205A65726F00004F766572666C6F774A
:1009200000000000556E646572666C6F7700000011
:10093000496E657861637420526573756C7400004C
:100940005349474650453A2041726974686D657451
:10095000696320657863657074696F6E3A20000082
:1009600008B569468DF800000320ABBE08BD0246FD
:1009700091F82500032802DA91F8260008B9002032
:100980007047B1F92A00904205DAD1F82E00401CD8
:10099000C1F82E000DE0B1F92A004042904205DD79
:1009A000D1F82E00401CC1F82E0002E00020C1F852
:1009B0002E00D1F82E00B1F92C30984201DD012033
:1009C000DEE70020DCE700BFFEE7000010B50248CC
:1009D00000F0CEFE10BD0000E004002000B58BB09A
:1009E000012009900020079001200890002001902C
:1009F0000290039004900690059001A9054800F02C
:100A000067FD044801F05FF90221024800F0A0FCF4
:100A10000BB000BDE004002010B5024800F0A8FEB5
:100A200010BD00000805002000B58BB00020079025
:100A300001200890002001900290039004900E2065
:100A400006900A90002005900120099001A906480F
:100A500000F03EFD044801F036F90221024800F0A2
:100A600077FC0BB000BD00000805002078B50546F6
:100A70000E461446A4F81F5004F11900A4F81B6098
:100A8000B4F81B00B4F81910401A00B2A4F81D0005
:100A9000B4F81B00A4F81900207E40B9012020768C
:100AA000B4F81F00A4F82100B4F91F006060B4F886
:100AB0001F20B4F82130D21A10B2B4F9231009F073
:100AC00013F900902068009908442060606800993C
:100AD00008446060B4F81F00A4F821006068B4F90D
:100AE00028104843B4F9231090FBF1F000EE100AEF
:100AF000B8EEC00AF0EE000A20EE200ADFED130A7D
:100B000020EE200A10EE100AA0602068B4F9281028
:100B10004843B4F9231090FBF1F000EE100AB8EE50
:100B2000C00AF0EE000A20EE200ADFED080A20EEEF
:100B3000200A10EE100A60612146009800B2FFF70B
:100B400016FF84F827000020009078BDD80F494098
:100B50000346042B15D007DC7BB1012B0ED0022BF2
:100B60000DD0032B12D10BE0202B0BD0212B0AD060
:100B7000222B09D0232B09D107E008E007E006E08B
:100B800005E004E003E002E001E000E000BF00BF98
:100B9000002070470020704710B500220449054826
:100BA00006F04BFB0449034806F038FB002010BD5B
:100BB00088210020AC1400208819002070B504465C
:100BC0000D462146054806F029FB044806F0F2FAD6
:100BD0002946204609F0BAFC002070BDAC14002064
:100BE00010B503460C460021084610BD2DE9F04122
:100BF00004460D4600260A48D0F8BC72D7F8140205
:100C000010B10120BDE8F0812A462146044806F0D3
:100C100014FB034806F0C4FB06463046F2E700002A
:100C2000AC140020C16B00EE101AB5EEC00AF1EE54
:100C300010FA03DDC16B00EE101A04E0C16B00EE88
:100C4000101AB1EE400A016E00EE901AB4EEE00AFE
:100C5000F1EE10FA00D87047C16B00EE101AB5EE35
:100C6000C00AF1EE10FA03DDC16B00EE101A04E0C9
:100C7000C16B00EE101AB1EE400AC16D00EE901A81
:100C8000B4EEE00AF1EE10FA05DD9FED180A10EE61
:100C9000101AC16127E0C16D00EE901AC16B00EE21
:100CA000101AB5EEC00AF1EE10FA03DDC16B00EECA
:100CB000101A04E0C16B00EE101AB1EE400A30EEDB
:100CC000C01AC16D00EE101A016E00EE901A30EEDF
:100CD000600AC1EE000AC16900EE101A20EE800A17
:100CE00010EE101AC16100BFB5E70000000000005F
:100CF00010B5024801F088F810BD00006007002020
:100D000010B5024801F080F810BD000088050020F1
:100D100010B5024801F078F810BD0000C0070020AF
:100D200010B5024801F070F810BD0000E805002081
:100D300010B5024801F068F810BD0000200800203E
:100D40000146087810381823B0FBF3F20848805C9D
:100D5000C865032A05D908686FF30900001D886576
:100D600003E008686FF309008865886D704700002C
:100D7000B0C40008014600208A6A8B69CBB932B141
:100D8000012A0DD0022A03D0032A10D10EE000BFA1
:100D9000CB6A03F08073B3F1807F00D1012007E0BC
:100DA000CB6AB3F1C07F00D1012001E000E000BFB9
:100DB00034E08B69B3F5005F1AD132B1012A07D054
:100DC000022A03D0032A11D10AE000BF01200EE05D
:100DD000CB6A03F08073B3F1807F00D1012006E07D
:100DE000CB6AB3F1C07F00D1012000E000BF15E065
:100DF00032B1012A05D0022A04D0032A0CD103E023
:100E000000BF00BF012008E0CB6A03F08073B3F19C
:100E1000807F00D1012000E000BF00BF70470000CC
:100E20001249096841F08071104A11600021104A8E
:100E300051601146096841F0010111600D494143BB
:100E40000D4A1160114609684FF47A72B1FBF2F154
:100E50000A4A116008490968064AB1FBF2F1084ADA
:100E600011600021074A116070470000FCED00E0AE
:100E7000001000E040420F00C0000020C40000202D
:100E8000C8000020CC0000207047000000B52423DB
:100E9000034AA2F12401034804F084FD00BD0000D0
:100EA00008090020D806002010B5024804F0BEFD55
:100EB00010BD0000D806002010B5102001F050F938
:100EC00010BD10B5202001F04BF910BD00210160CC
:100ED00041609FED050A10EE101A81609FED020A35
:100EE00010EE101A416170470000000070B5044612
:100EF0000D46204600F02BF804F8255F0020A07076
:100F00006070253C6DB1012D17D0022D1CD1280336
:100F1000A4F82300242020850A206085E801A0850C
:100F200013E04FF40050A4F82300132020850A207A
:100F300060854FF48070A08507E04FF40050A4F85E
:100F400023000120208500E000BF00BF70BD10B568
:100F5000044636212046FFF74FFB10BD72B600BF96
:100F6000FEE70000002110EE101A080E044A10706F
:100F7000080C5070080A9070D1701046704700003D
:100F80008602002070B50A480468001D0568001D2F
:100F90000668344454B108220649204603F020FD77
:100FA000042204491031284603F01AFD70BD0000E8
:100FB000107AFF1F2E01002000487047980C002077
:100FC00000F038F8184803F0EDFD184908602AE0F1
:100FD00009F04AFF01211548006805F04DFA134851
:100FE000006803F0BBFD124890ED000A47F20A01C9
:100FF0000E48006803F05EFDB6EE000A47F21001ED
:101000000A48006803F056FD0848006803F01AFF1C
:1010100047F210010548006803F022FD09F04EFF79
:1010200001200AF00BF8D3E7E004002018000020AC
:101030007000002010B59FEDB60AB64880ED000A9A
:101040009FEDB30A80ED010A04F0A8FCB149C86322
:1010500004F0A0FCAF49086409F064FAAD49C86126
:1010600009F070FAAB49C86009F04CFAA949086365
:1010700009F054FAA749886209F060FAA549C862E4
:1010800009F058FAA349486309F044FA0146A14817
:1010900081630146886A0221FFF728FF9D49C86ADB
:1010A0000121FFF723FF46219FED991ADFED980AF2
:1010B000B2EE040A9748D53004F085FB4FF48371F3
:1010C0009FED951ADFED920A9FED940A9148453005
:1010D00004F079FBDFED8E0A9FED910A04218D4823
:1010E000D53004F08FFBDFED8A0A9FED8D0A0221D7
:1010F0008848D53004F086FBDFED850A9FED890A2C
:1011000040218448D53004F07DFBDFED810AB1EE4B
:10111000040A02217F48453004F074FBDFED7C0AAD
:101120009FED7F0A04217B48453004F06BFBDFED27
:10113000780AB3EE0E0A4FF480717648453004F019
:1011400061FB06219FED721ADFED710AB2EE040A0F
:10115000754804F038FB4FF483719FED6F1ADFED93
:101160006C0A9FED720A7048903804F02CFBDFED9A
:10117000680A9FED6F0A04216B4804F043FBDFED22
:10118000640A9FED670A0221674804F03BFBDFED2C
:10119000600A9FED680A4FF480716348903804F04C
:1011A00031FBDFED5B0A9FED610A02215E4890385A
:1011B00004F028FBDFED560A9FED5D0A04215A4832
:1011C000903804F01FFB06219FED511ADFED500A05
:1011D0009FED590A594804F0F6FA04219FED4C1A84
:1011E000DFED570A9FED570A4F48903004F0EBFAB5
:1011F000DFED470A9FED4A0A0421504804F002FB44
:10120000DFED430A9FED460A02214C4804F0FAFA4A
:10121000DFED3F0A9FED420A04214348903004F07D
:10122000F1FA06219FED3A1ADFED390AB7EE000A0E
:10123000454804F0C8FA06219FED351AF1EE040A7C
:101240009FED330A3D48903004F0BDFADFED300ADF
:101250009FED370A04213C4804F0D4FADFED2C0A54
:101260009FED2F0A0221384804F0CCFADFED280A5E
:10127000B1EE040A02213148903004F0C3FADFEDE8
:10128000240A9FED2B0A04212C48903004F0BAFA6E
:101290009FED2E0A2C48903009F014F92AE01D48E1
:1012A000C069B0F9020001EE900AF8EEE11AB0EE62
:1012B000611A1848006BD0ED1D1AF0EE610A15484E
:1012C000D0ED001AB0EE610A00F14501D53009F009
:1012D000A9F900EE100AB8EEC00A0E4880ED090A1E
:1012E000014691ED090ABDEEC00A10EE101A08B2CF
:1012F00008F00CFD0748006B90ED1D0AB5EEC00A22
:10130000F1EE10FACBD10349886AFFF7DFFD10BD7B
:1013100000000000A80E00200000C84200007A442F
:1013200000401C466666663F9D1000200000964304
:101330000060EA460000704200000C42BD1100202F
:101340000AD7A33D00004844DD1200208FC2F53CBF
:1013500010B5024692F82030012B01D0022B06D1A5
:1013600010684069084314686061002010BD506A2D
:1013700040F4802050620120F8E7F0B504460D46A5
:101380001E4694F8207020688368A86800B900E0C1
:1013900000BF012F01D0022F7CD103F0806030B953
:1013A00003F0006018B903F08050002873D0C3F335
:1013B0000161022905D9606A40F4000060620120E1
:1013C000F0BD012088403060A86860B9B5F800C061
:1013D000E86840EA4C5C206800F5C07000EB011042
:1013E000C0F800C00FE0D5E901C040EACC00D5F854
:1013F0000CC040EA0C00D4F800C00CF5C07C0CEB2B
:10140000011CCCF80000D5F810C0206800F5C070B1
:1014100000EB0110C0F804C0287D01280ED120681F
:1014200000F5C07000EB0110406840F4807C20683B
:1014300000F5C07000EB0110C0F804C0D0790006C0
:1014400092F806C040EA0C4092F805C040EA0C2C25
:1014500010794CEA000C206800F5C07000EB011018
:10146000C0F80CC0D078000692F802C040EA0C40E8
:1014700092F801C040EA0C2092F800C040EA0C004B
:10148000D4F800C00CF5C07C0CEB011CCCF80800B3
:10149000206801E016E00FE000F5C07000EB0110DD
:1014A000006840F0010C206800F5C07000EB0110EE
:1014B000C0F800C0002083E7606A40F4001060625A
:1014C00001207DE7606A40F480206062012077E7B8
:1014D000F0B504460A46216894F82050012D01D049
:1014E000022D7ED1424901F50071086840F00100EB
:1014F0000860086820F47C5008600868566A40EA72
:1015000006200860107D00F01F06012000FA06F397
:10151000C8699843C861A1F50071D069C8B9D1F80C
:101520000C029843C1F80C02908880B2968940EA78
:10153000064601F51070576940F83760108880B290
:10154000168940EA064601F51070576900EBC7009E
:101550004660D069012819D1D1F80C021843C1F8AE
:101560000C02908880B2168840EA064601F5107099
:10157000576940F83760908980B2168940EA06467C
:1015800001F51070576900EBC7004660906928B9F3
:10159000D1F804029843C1F8040204E0D1F804022F
:1015A0001843C1F80402106928B9D1F8140298430D
:1015B000C1F8140204E0D1F814021843C1F814026F
:1015C000106A012804D1D1F81C021843C1F81C028A
:1015D000D1F8000220F00100C1F800020020F0BDA7
:1015E000FFE7606A40F4802060620120F7E70000B6
:1015F00000640040704770B5044694F82050012DF7
:1016000001D0022D7DD151B92068C06800F00300DF
:1016100080B9606A40F400106062012070BD2068EB
:10162000006900F0030028B9606A40F400106062AD
:101630000120F3E7206800F5D87000EB0110006886
:1016400000F004009060906840B9206800F5D87000
:1016500000EB01100068400D106007E0206800F505
:10166000D87000EB01100068C0085060206800F5D9
:10167000D87000EB0110006800F00200D060206814
:1016800000F5D87000EB0110406800F00F00106109
:10169000206800F5D87000EB0110406800F47F402E
:1016A000000A9061206800F5D87000EB01104068D6
:1016B000000C5061206800F5D87000EB01108068C4
:1016C0001870206800F5D87000EB0110806800F4F5
:1016D0007F40000A5870206800F5D87000EB0110B8
:1016E000806800F47F00000C9870206800F5D870C6
:1016F00000EB01108068000ED870206800F5D870EB
:1017000000E02FE000EB0110C0681871206800F5C0
:10171000D87000EB0110C06800F47F40000A5871D7
:10172000206800F5D87000EB0110C06800F47F005D
:10173000000C9871206800F5D87000EB0110C068AB
:10174000000ED87131B92068C06840F020002668CA
:10175000F06005E02068006940F0200026683061F4
:1017600000205BE7606A40F480206062012055E75A
:101770002DE9F05F04460025206846692068D0F80E
:101780000490206887682068D0F80CA02068D0F802
:1017900010B02068D0F8188006F00100002855D05D
:1017A00007F00100C0B101202168886007F0020045
:1017B00018B1204600F0B7FA0EE007F0040010B1AF
:1017C00045F4006508E007F0080010B145F48055C5
:1017D00002E0204600F0A6FA07F48070C8B14FF48A
:1017E00080702168886007F4007018B1204600F00E
:1017F0009CFA0EE007F4806010B145F4005508E053
:1018000007F4006010B145F4804502E0204600F086
:101810008BFA07F48030C8B14FF4803021688860BB
:1018200007F4003018B1204600F081FA0EE007F40A
:10183000802010B145F4004508E007F4002010B105
:1018400045F4803502E0204600F070FA06F008000A
:1018500038B10AF0100020B145F40075102021685D
:10186000C86006F0040040B10AF0080028B1082062
:101870002168C860204600F00DFA06F0020038B179
:101880002068C06800F0030010B1204600F004FAA0
:1018900006F0400038B10BF0100020B145F480652F
:1018A00010202168086106F0200040B10BF008000C
:1018B00028B1082021680861204600F001FA06F0EE
:1018C000100038B12068006900F0030010B1204614
:1018D00000F0F7F906F4003040B109F0100028B12B
:1018E000102021684860204600F0ECF906F48030B2
:1018F00040B109F0080028B108202168486020465E
:1019000000F016FA06F4004088B309F0040078B33A
:1019100006F4807020B108F0010008B145F001051F
:1019200006F4007020B108F0020008B145F002058D
:1019300006F4806020B108F0040008B145F0040509
:1019400006F40060A0B108F0700088B108F07000E3
:10195000402817D006DC10280BD020280CD03028C7
:1019600019D10CE0502810D0602814D110E01DE0EF
:1019700019E045F008050FE045F010050CE045F0D2
:10198000200509E045F0400506E045F0800503E04C
:1019900045F4807500E000BF00BF2068806920F03A
:1019A0007000216888610420216848602DB1606A58
:1019B000284360622046FFF71DFEBDE8F09F70B52A
:1019C00004460CB9012070BD94F8200010B92046DF
:1019D00000F0B0F82068006840F00100216808605D
:1019E00000F0CCFC05460DE000F0C8FC401B0A28C6
:1019F00008D9606A40F400306062052084F8200055
:101A00000120E0E72068406800F001000028EBD0EA
:101A10002068006820F002002168086000F0AEFC39
:101A200005460DE000F0AAFC401B0A2808D9606AB0
:101A300040F400306062052084F820000120C2E7F5
:101A40002068406800F002000028EBD1207E0128C9
:101A500006D12068006840F080002168086005E039
:101A60002068006820F0800021680860607E0128FE
:101A700006D12068006840F040002168086005E059
:101A80002068006820F0400021680860A07E0128DE
:101A900006D12068006840F020002168086005E059
:101AA0002068006820F0200021680860E07E01289E
:101AB00006D12068006820F010002168086005E069
:101AC0002068006840F0100021680860207F01282D
:101AD00006D12068006840F008002168086005E031
:101AE0002068006820F0080021680860607F0128F5
:101AF00006D12068006840F004002168086005E015
:101B00002068006820F0040021680860D4E9020120
:101B1000084321690843616908436168491E084315
:101B20002168C86100206062012084F82000002044
:101B300049E7000010B586B00446142101A8FEF75D
:101B40007DFD4E492068884241D14D480068401CC7
:101B50004B4908600846006801280FD100BF0020EB
:101B600000904848006840F0007046490860084608
:101B7000006800F00070009000BF00BF00BF0020B0
:101B8000009040481038006840F008003D49103986
:101B900008600846006800F00800009000BF00BF21
:101BA0000320019002200290002003900320049063
:101BB0000920059001A9344800F0E0FA002205212F
:101BC000142000F095FC142000F082FC54E02F4912
:101BD0002068884250D100BF00200090294800684A
:101BE00040F08060274908600846006800F0806087
:101BF000009000BF00BF22480068401C20490860D8
:101C00000846006801280FD100BF002000901D4841
:101C1000006840F000701B4908600846006800F04A
:101C20000070009000BF00BF00BF0020009015486A
:101C30001038006840F00200124910390860084668
:101C4000006800F00200009000BF00BF602001901B
:101C500002200290002003900320049009200590A8
:101C600001A90B4800F08AFA00220521402000F06B
:101C70003FFC402000F02CFC06B010BD006400408A
:101C80000800002040380240000C0240006800407C
:101C9000000402407047000010B504460648844224
:101CA00002D1204608F086F80448844202D120463A
:101CB00008F0F8F810BD0000E0040020080500203E
:101CC00070477047704770B5044694F820000128AB
:101CD00022D1022084F820002068006820F0010052
:101CE0002168086000F04AFB05460DE000F046FB65
:101CF000401B0A2808D9606A40F400306062052061
:101D000084F82000012070BD2068406800F00100C8
:101D10000028EBD16062F6E7606A40F40020606260
:101D20000120F0E770477047704770477047704771
:101D3000704770B50446A56D00F020FB064694F888
:101D40003500022808D08020606500BF002084F89C
:101D5000340000BF012070BD2068006820F016002C
:101D6000216808602068406920F08000216848618F
:101D7000206C08B9A06C28B12068006820F0080029
:101D8000216808602068006820F001002168086070
:101D900010E000F0F3FA801B05280BD920206065C5
:101DA000032084F8350000BF002084F8340000BF11
:101DB0000320D0E72068006800F001000028E8D187
:101DC00094F85C103F208840A860012084F835001A
:101DD00000BF002084F8340000BF00BFBBE701460D
:101DE00091F83500022803D0802048650120704713
:101DF000052081F835000868006820F001000A68B5
:101E000010600020F3E70000F8B5044600200090C1
:101E10008C4800684FF41651B0FBF1F7A56D2E68A1
:101E200094F85C1008208840304098B12068006821
:101E300000F0040070B12068006820F00400216800
:101E4000086094F85C1008208840A860606D40F03D
:101E50000100606594F85C1001208840304068B152
:101E60002068406900F0800040B194F85C100120C7
:101E70008840A860606D40F00200606594F85C10D6
:101E800004208840304068B12068006800F00200FB
:101E900040B194F85C1004208840A860606D40F068
:101EA0000400606594F85C1010208840304078B3DE
:101EB0002068006800F0080050B394F85C1010200F
:101EC0008840A8602068006800F4802080B1206805
:101ED000006800F4002028B9206CC8B12046216CAD
:101EE000884715E0A06C98B12046A16C88470FE0A8
:101EF0002068006800F4807028B92068006820F02D
:101F0000080021680860206C10B12046216C8847C9
:101F100094F85C10202088403040002865D020686C
:101F2000006800F0100000285FD094F85C102020BA
:101F30008840A86094F83500052828D120680068FA
:101F400020F01600216808602068406920F08000B9
:101F500021684861206C08B9A06C28B1206800682D
:101F600020F008002168086094F85C103F20884049
:101F7000A860012084F8350000BF002084F83400F8
:101F800000BF206D10B12046216D8847F8BD206844
:101F9000006800F4802080B12068006800F4002010
:101FA00028B9606C10B12046616C88471DE0E06B79
:101FB000D8B12046E16B884717E02068006800F43C
:101FC000807068B92068006820F0100021680860FF
:101FD000012084F8350000BF002084F8340000BFE1
:101FE000E06B10B12046E16B8847606D38B3606DDF
:101FF00000F00100F0B1052084F835002068006889
:1020000020F001002168086000BF0098401C00908B
:10201000B84200D905E02068006800F001000028FF
:10202000F3D100BF012084F8350000BF002084F800
:10203000340000BFE06C10B12046E16C884700BF5F
:10204000A4E70000680100202DE9F04104460025C6
:1020500000F094F9074614B90120BDE8F081606AE8
:1020600000B100BF022084F8350000BF002084F8D2
:10207000340000BF2068006820F00100216808607B
:102080000AE000F07BF9C01B052805D92020606517
:10209000032084F83500E0E72068006800F00100C4
:1020A0000028EED12068056821480540D4E90101E7
:1020B0000843E16808432169084361690843A1694D
:1020C0000843E1690843216A08430543606A04281C
:1020D00003D1D4E90B01084305432068056020685B
:1020E000456925F00705606A0543606A04280DD13B
:1020F000A06A0543E06A48B12046FEF73BFE28B1DE
:1021000040206065012084F83500A6E7206845611D
:102110002046FEF715FE064694F85C103F208840E6
:10212000B06000206065012084F83500002094E74D
:102130003F8010F070B5044600F020F906462546B1
:10214000681C10B104480078054400BF00F016F97F
:10215000801BA842FAD370BD6401002070470000C4
:1021600010B5044604480068204020B102480460CD
:102170002046FFF7F3FF10BD143C0140F8B50246BE
:102180000B460025002400200021D6E0012606FA97
:1021900001F51E6806EA0504AC4274D11E7906F00A
:1021A0000306012E04D01E7906F00306022E13D179
:1021B00090684F000326BE40B0434F00DE68BE402B
:1021C00030439060506801268E40B0431E79C6F3BC
:1021D00000168E40304350601E7906F00306032E31
:1021E00009D0D0684F000326BE40B0434F009E6820
:1021F000BE403043D0601E7906F00306022E13D194
:10220000CF0802F1200656F827004E07F70E0F26DA
:10221000BE40B0434F07FF0E1E69BE403043CF089B
:1022200002F1200646F8270010684F000326BE4042
:10223000B0431E7906F003064F00BE4030431060E5
:102240005E6806F44036002E76D000BF0026009669
:102250003C4E366846F480463A4F3E603E4636680D
:1022600006F48046009600BF00BF374E8F0856F830
:1022700027008E07370F0F26BE40B043334EB242C1
:1022800002D1002624E057E0314EB24201D10126AE
:102290001EE0304EB24201D1022619E02E4EB2426B
:1022A00001D1032614E02D4EB24201D104260FE0E5
:1022B0002B4EB24201D105260AE02A4EB24201D18C
:1022C000062605E0284EB24201D1072600E0082686
:1022D0008F073F0FBE4030431B4E8F0846F8270044
:1022E000224E3068A0435E6806F4801606B1204393
:1022F0001E4E3060361D3068A0435E6806F400163E
:1023000006B12043194E361D3060184E361F306816
:10231000A0435E6806F4003606B12043134E361F14
:102320003060361F3068A0435E6806F4803606B120
:1023300020430E4E083E3060491C1029FFF426AFA2
:10234000F8BD000044380240083801400000024057
:102350000004024000080240000C0240001002404D
:102360000014024000180240001C0240083C0140DA
:102370000AB1816101E00B04836170470148006884
:10238000704700005C010020034800680349097899
:1023900008440149086070475C0100206401002086
:1023A00010B50D48006840F400700B4908600846FD
:1023B000006840F4806008600846006840F480705F
:1023C0000860032000F0D2F8052000F007F800F0C4
:1023D00055F8002010BD0000003C0240F0B587B069
:1023E00004460026002700BF002000901E48006819
:1023F00040F001001C4908600846006800F0010038
:10240000009000BF00BF01A902A801F06BF801F025
:10241000A1F846001548B6FBF0F0471E14481549D0
:10242000086040F2E7311348C16047600021016154
:102430008160816101F0B0FC054695B90D4801F05D
:102440001BFD05466DB9192000F042F8102C07D28B
:1024500000222146192000F04BF80748046000E0F4
:102460000125284607B0F0BD4438024040420F0025
:1024700000000140800800206001002008B500BF76
:10248000002000901148006840F480400F49086027
:102490000846006800F48040009000BF00BF00BF05
:1024A00000200090081F006840F08050091F08605D
:1024B0000846006800F08050009000BF00BF002276
:1024C0000F21901E00F014F808BD000044380240AF
:1024D00001460846002809DB00F01F0301229A404C
:1024E00043099B0003F1E023C3F8002100BF7047BC
:1024F0002DE9F05F80460D461646002707F064FB85
:10250000074639462A46334601F00700C0F1070A5C
:10251000BAF1040F02D94FF0040A01E0C0F1070A32
:10252000D14600F1040ABAF1070F02D24FF0000AB7
:1025300001E0A0F1030AD4464FF0010A0AFA09FAB1
:10254000AAF1010A0AEA020A0AFA0CFA4FF0010B90
:102550000BFA0CFBABF1010B0BEA030B4AEA0B0481
:102560002146404607F038FBBDE8F09F00BF00F071
:102570000702064B19684FF6FF031940044B0B4343
:1025800043EA0221014B196000BF70470CED00E0E7
:102590000000FA057047024610684162002070474B
:1025A000F0B5034615461868446A21B944EA054067
:1025B0001E68B06219E01868806A04EB10440022BB
:1025C00008E0186800F5827050F8220004EB10440F
:1025D000501CC2B2481E9042F3D844EA054718681E
:1025E00000F582704E1E40F826700020F0BD10B538
:1025F0000446D4F8080505F03EFB10BD70B504464E
:102600000D4605EBC50304F13C0101EB83010A69AA
:102610002946D4F8080505F029FA70BD70B50446BE
:102620000D4605EBC50304F51F7101EB83010A6933
:102630002946D4F8080505F09DFA70BD10B504468A
:10264000D4F8080505F01AFB10BD2DE9F041044649
:102650000D4605F08000802808D105F00F0000EB42
:10266000C00104F13C0000EB810607E005F00F001B
:1026700000EBC00104F51F7000EB810631462068B5
:1026800006F0EEFD07463846BDE8F08170B5044619
:102690000E4606F0800080280AD106F00F0000EBFD
:1026A000C00104F13C0000EB81050120687009E0E5
:1026B00006F00F0000EBC00104F51F7000EB810570
:1026C0000020687006F00F00287000BF94F8BC046A
:1026D000012801D1022070BD012084F8BC0400BF94
:1026E0002946206806F09CF800BF002084F8BC044E
:1026F00000BF00BFEFE770B504460E4606F00F00BE
:102700006168884201D9012070BD06F080008028F0
:102710000AD106F00F0000EBC00104F13C0000EB11
:1027200081050120687009E006F00F0000EBC00190
:1027300004F51F7000EB8105002068700020A87070
:1027400006F00F00287000BF94F8BC04012801D1E6
:102750000220D9E7012084F8BC0400BF2946206884
:1027600006F046FB00BF002084F8BC0400BF00BF99
:10277000CAE7024601F00F0000EBC00302F51F702C
:1027800000EB8300006A70472DE9F04705460E46CE
:1027900090461F464FF0000906F0800080280AD1BD
:1027A00006F00F0000EBC00105F13C0000EB8104D6
:1027B0000120607009E006F00F0000EBC00105F594
:1027C0001F7000EB81040020607006F00F00207085
:1027D000C4F80C802771607808B120782081022F1E
:1027E00001D10020607100BF95F8BC04012802D11E
:1027F0000220BDE8F087012085F8BC0400BF214617
:10280000286805F023FF00BF002085F8BC0400BF46
:102810004846EEE72DE9F04104460E461746984635
:1028200006F00F0000EBC00104F51F7000EB8105FE
:102830002F61C5F8188000202862687006F00F002C
:1028400028702069012800D16F6106F00F0028B9B7
:10285000227C2946206806F0A5F904E0227C29465E
:10286000206806F059FB0020BDE8F08170B50446F1
:102870000D4605F00F006168884201D9012070BD46
:1028800005F0800080280AD105F00F0000EBC001A0
:1028900004F13C0000EB81060120707007E005EBBD
:1028A000C50104F51F7000EB810600207070012047
:1028B000B07005F00F00307000BF94F8BC04012820
:1028C00001D10220DBE7012084F8BC0400BF3146BF
:1028D000206806F0D4FA05F00F0028B9217C04F234
:1028E000C442206806F04CFA00BF002084F8BC0403
:1028F00000BF00BFC3E72DE9F04104460E4617466E
:10290000984606F00F0000EBC00104F13C0000EB1C
:1029100081052F61C5F818800020286201206870A9
:1029200006F00F0028702069012800D16F6106F0C1
:102930000F0028B9227C2946206806F033F904E00C
:10294000227C2946206806F0E7FA0020BDE8F081E5
:102950002DE9FE4F0446D4F800B05E46206806F02C
:1029600066FD002874D1206806F0A0FD08B9BDE816
:10297000FE8F40F608008059C0F30D20C4F8FC0417
:10298000206806F093FD00F00200022805D12068BF
:10299000406900F0020021684861206806F086FD69
:1029A00000F01000102845D12068806920F0100048
:1029B00021688861DBF8209009F00F0000EBC0016E
:1029C00004F51F7000EB810AC9F3434002281AD1B5
:1029D00047F6F07009EA000030B3C9F30A1258460E
:1029E000DAF8101006F067FDC9F30A11DAF81000E2
:1029F0000844CAF81000C9F30A11DAF820000844A4
:102A0000CAF8200010E0C9F3434006280CD1082280
:102A100004F2C441584606F04EFDC9F30A11DAF833
:102A200020000844CAF820002068806940F01000A7
:102A300021688861206806F039FD00F40020B0F5B7
:102A4000002F7BD10025206806F000FD029072E087
:102A5000E1E2029800F00100002868D0E9B22068A5
:102A600006F017FD804608F0010048B1012106F587
:102A7000306000EB451081602946204602F0CAFC18
:102A800008F00800082809D1082106F5306000EB9D
:102A9000451081602946204602F08AFC08F01000AB
:102AA000102805D1102106F5306000EB451081603B
:102AB00008F00200022824D1DBF8140000F08000A6
:102AC000802807D140F60400805940F4806140F628
:102AD0000400815105EBC50104F51F7000EB810A6C
:102AE0009AF80300012806D100208AF80300E9B211
:102AF000204600F09BFA022106F5306000EB4510FD
:102B0000816008F02000202805D1202106F53060E2
:102B100000EB4510816008F40050B0F5005F06D16D
:102B20004FF4005106F5306000EB451081606D1CDC
:102B3000029840080290029800288AD1206806F086
:102B4000B5FC00F48020B0F5802F7DD1206806F020
:102B500073FC029000259AE0029800F00100002822
:102B600073D0E9B2206806F07BFC804608F00100D3
:102B7000F0B305F00F0101208840019040F63400C9
:102B80008159019821EA000040F634018851012161
:102B900006F5106000EB451081602069012824D102
:102BA00005EBC50104F13C0000EB810005EBC5021B
:102BB000016904F13C0000EB8200C068014405EBB0
:102BC000C50204F13C0000EB820001616DB905EB28
:102BD000C50104F13C0000EB8100806928B904F2D2
:102BE000C4420121206806F0CBF8E9B2204600E09B
:102BF00001E0FFF703FD08F00800082805D10821CF
:102C000006F5106000EB4510816008F010001028F8
:102C100005D1102106F5106000EB4510816008F029
:102C20004000402805D1402106F5106000EB45101A
:102C3000816008F0020002281DD12946584606F09E
:102C4000B7FB05EBC50101E025E01CE004F13C0009
:102C500000EB810A9AF80300012806D100208AF8C7
:102C60000300E9B2204600F0D8F9022106F5106011
:102C700000EB4510816008F08000802803D12946D0
:102C8000204602F069FC6D1C0298400802900298F0
:102C900000287FF461AF206806F008FC00F00040D7
:102CA000B0F1004F1CD140F60400805920F0010122
:102CB00040F60400815194F8F404012807D1002063
:102CC00084F8F40400212046FFF764FC02E020466B
:102CD00000F0D4FA2068406900F0004021684861A3
:102CE000206806F0E3FB00F40060B0F5006F0ED141
:102CF00040F60800805900F0010010B1204600F0B5
:102D000015FB2068406900F4006021684861206874
:102D100006F0CCFB00F48050B0F5805F7ED140F629
:102D20000400805920F0010140F604008151102177
:102D3000206806F03DFB002732E04FF67F3106F5B4
:102D4000106000EB4710816006F5106000EB471043
:102D5000006820F4001106F5106000EB47100160D8
:102D60004FF67F3106F5306000EB4710816006F5C5
:102D7000306000EB4710006820F4001106F5306069
:102D800000EB4710016006F5306000EB471000686B
:102D900040F0006106F5306000EB471001607F1CD9
:102DA0006068B842C9D840F61C00805940F0011153
:102DB00040F61C008151206B70B1D6F8840840F0B9
:102DC0000B01C6F8841840F64400805940F00B010E
:102DD00040F6440081510FE040F61400805942F261
:102DE0002B01084340F614018851081F805940F018
:102DF0000B014FF401608151D6F8000820F4FE6009
:102E0000C6F80008217C04F2C442206805F0B8FF2F
:102E10002068406900F48050216800E000E04861CB
:102E2000206806F043FB00F40050B0F5005F17D1B6
:102E3000206805F073FC206806F0E6FAE06000F018
:102E400073FB0090227B2068009906F0B7FB2046B8
:102E500000F0FCF92068406900F4005021684861E6
:102E6000206806F023FB00F00800082808D120465F
:102E700000F00BFA2068406900F008002168486102
:102E8000206806F013FB00F08000802818D1DBF8E2
:102E9000180020F08000CBF8180001250DE005EBAC
:102EA000C50104F51F7000EB8100C078012803D133
:102EB000E9B22046FFF7C9FB6D1C6068A842EED856
:102EC000206806F0F3FA00F48010B0F5801F2DD1D1
:102ED000012522E006F5106000EB4510D0F80090C7
:102EE00005EBC50104F13C0000EB810000790128ED
:102EF00012D109F00040B0F1004F0DD1012105EBD6
:102F0000C50204F13C0000EB8200C170E8B240F061
:102F100080012046FFF799FB6D1C6068A842D9D854
:102F20002068406900F4801021684861206806F03C
:102F3000BDFA00F40010B0F5001F44D1012538E0BF
:102F400006F5306000EB4510D0F8009005EBC501A8
:102F500004F51F7000EB81000079012828D109F0E9
:102F60000040B0F1004F23D109F4803094F8FC14F4
:102F700001F0010188421BD1012105EBC50204F5D6
:102F80001F7000EB8200C170DBF8180040F0800079
:102F9000CBF81800DBF8140000F0800040B940F6D0
:102FA0000400805940F4007140F60400815103E0B0
:102FB0006D1C6068A842C3D800BF2068406900F457
:102FC000001021684861206806F070FA00F0804027
:102FD000B0F1804F08D12046FFF709FB2068406917
:102FE00000F0804021684861206806F05FFA00F038
:102FF000040004280FD12068D0F8049009F00400E0
:10300000042802D12046FFF719FB2068406840EAF7
:1030100009002168486000BFA9E470B504460D4668
:103020002946D4F8080504F095FE70BD70B5044635
:103030000D462946D4F8080504F0B0FE70BD70B501
:103040008AB0044614B901200AB070BD266894F80D
:10305000BD0428B9002084F8BC04204600F0A2F882
:10306000032084F8BD04F06B00F4807008B90021DF
:103070002161206805F08EFD282204F110016846C8
:10308000FDF788FA94E80F0005F05CFB20B1022000
:1030900084F8BD040120D7E70021206806F03BFA40
:1030A000002531E0012105EBC50204F13C0000EBF5
:1030B0008200417005EBC50104F13C0000F821508D
:1030C00005EBC50100EB81000581002105EBC50280
:1030D00004F13C0000EB8200017105EBC50204F134
:1030E0003C0000EB8200C16005EBC50204F13C002E
:1030F00000EB8200016105EBC50204F13C0000EB2E
:1031000082008161681CC5B26068A842CAD80025E7
:103110002AE0002105EBC50204F51F7000EB8200D8
:10312000417005EBC50104F51F7000F82150002126
:1031300005EBC50200EB8200017105EBC50204F549
:103140001F7000EB8200C16005EBC50204F51F7023
:1031500000EB8200016105EBC50204F51F7000EB76
:1031600082008161681CC5B26068A842D1D828225B
:1031700004F110016846FDF70DFA94E80F0005F020
:1031800019FC20B1022084F8BD0401205CE7002076
:1031900084F83800012084F8BD04206805F0F8FBAD
:1031A000002051E710B586B00446142101A8FDF7B0
:1031B00045FA2068B0F1A04F42D100BF0020009036
:1031C0002048006840F001001E4908600846006879
:1031D00000F00100009000BF00BF4FF4E0500190EC
:1031E0000220029000200390032004900A20059002
:1031F00001A91548FEF7C2FF00BF1248001D006874
:1032000040F080000F49091D086000BF00200090B9
:103210000C481430006840F480400A4914310860BA
:103220000846006800F48040009000BF00BF00BF67
:10323000002205214320FFF75BF94320FFF748F9FF
:1032400006B010BD303802400000024070B50446A0
:103250000125E06808B9002506E0E068022801D1F0
:10326000012501E0FDF77AFE2946D4F8080504F0AF
:103270003EFED4F8080504F0E5FD70BD10B5044627
:10328000D4F8080504F014FE10BD10B50446D4F8B7
:10329000080504F018FE10BD70B504460D4600BFC9
:1032A00094F8BC04012801D1022070BD012084F8EB
:1032B000BC0400BF84F838502946206806F05FF946
:1032C00000BF002084F8BC0400BF00BFEDE710B5CC
:1032D000044604F2C441D4F8080504F01FFE10BDF2
:1032E00070B50446256800BF94F8BC04012801D1DC
:1032F000022070BD012084F8BC0400BFA06A012830
:1033000006D1A069012803D0A86B40F48030A863DF
:10331000206806F01BF8206805F028FB00BF00209D
:1033200084F8BC0400BF00BFE3E7000010B504460A
:10333000D4F8080504F04FFE2068D0F8000E40F0E5
:1033400001002168C1F8000E206A28B10348006816
:1033500040F006000149086010BD000010ED00E0DB
:1033600070B504460D460CB9012070BD5848006880
:1033700000F00700A84209D255490D7008460068C0
:1033800000F00700A84201D00120EEE7207800F00D
:10339000020002281DD1207800F00400042805D185
:1033A0004C48006840F4E0504A490860207800F03A
:1033B0000800082805D14748006840F460404549A6
:1033C00008604448006820F0F000A16808434149C3
:1033D0000860207800F00100A8B36068012807D1D8
:1033E0003C4808380068C0F34040B8B90120BCE749
:1033F0006068022802D06068032807D13548083881
:103400000068C0F3406048B90120AEE73148083891
:103410000068C0F3400008B90120A6E72D48006805
:1034200020F00300616808432A490860FEF7A6FF00
:10343000064609E0FEF7A2FF801B41F28831884270
:1034400002D9032091E707E02248006800F00C0051
:103450006168B0EB810FEDD11D48006800F00700F6
:10346000A84209D91A490D700846006800F0070003
:10347000A84201D0012078E7207800F00400042859
:1034800007D11448006820F4E050E168084311496E
:103490000860207800F00800082808D10D4800686E
:1034A00020F46040216940EAC1000A49086000F048
:1034B00061F808490968C1F30311074A515CC84023
:1034C0000649086006480068FEF788FF00204CE7C0
:1034D000003C024008380240B8C4000868010020DF
:1034E000600100200F2202600D4A126802F0030200
:1034F00042600B4A126802F0F0028260084A1268C9
:1035000002F4E052C260064A126802F46042D20835
:103510000261044A126802F007020A607047000064
:1035200008380240003C0240014800687047000033
:103530006801002000B5FFF7F7FF04490968C1F3EF
:103540008221034A515CC84000BD00000838024097
:10355000C8C4000800B5FFF7E7FF04490968C1F3D4
:103560004231034A515CC84000BD000008380240A7
:10357000C8C400082DE9F047002400250026A14614
:103580002548006800F00C0020B1042805D0082868
:103590003AD105E0DFF8849039E0DFF8849036E036
:1035A0001D48001F006800F03F041B48001F006812
:1035B00000F4800078B11A481749091F0968C1F35F
:1035C0008811A0FB01700146224600233846FCF713
:1035D00025FF05460EE011480F49091F0968C1F390
:1035E0008811A0FB01700146224600233846FCF7F3
:1035F00015FF05460848001F0068C0F30140401C45
:103600004600B5FBF6F902E0DFF8109000BF00BFFE
:103610004846BDE8F0870000083802400024F40066
:10362000001BB700F8B504460CB90120F8BD20789E
:1036300000F00100002874D0F948006800F00C0088
:1036400004280DD0F648006800F00C00082813D1BB
:10365000F348001F006800F48000B0F5800F0BD124
:10366000EF4808380068C0F34040002859D060682F
:10367000002856D10120D9E700BF6068B0F5803F2F
:1036800008D1E7480838006840F48030E449083938
:1036900008601EE06068B0F5A02F0DD1E048083842
:1036A000006840F48020DE49083908600846006858
:1036B00040F4803008600CE0D9480838006820F4F5
:1036C0008030D749083908600846006820F4802017
:1036D000086000BF606890B1FEF750FE054606E046
:1036E000FEF74CFE401B642801D903209EE7CC481E
:1036F00008380068C0F340400028F1D011E0FEF720
:103700003DFE054606E0FEF739FE401B642801D960
:1037100003208BE7C24808380068C0F34040002807
:10372000F1D1207800F0020002285FD1BC48006887
:1037300000F00C0058B1BA48006800F00C000828EE
:103740001CD1B748001F006800F48000B0B9B4482D
:1037500008380068C0F3400020B1E068012801D0BB
:10376000012063E7AE480838006820F0F8002169BE
:1037700040EAC100AA490839086037E0E06800B3B0
:103780000120A8490860FEF7F9FD054606E0FEF7AE
:10379000F5FD401B022801D9032047E7A04808385F
:1037A0000068C0F340000028F1D09D480838006848
:1037B00020F0F800216940EAC10099490839086001
:1037C00014E0002097490860FEF7D8FD054606E0A2
:1037D000FEF7D4FD401B022801D9032026E79048BC
:1037E00008380068C0F340000028F1D1207800F0CC
:1037F000080008282CD16069A8B101208A49086016
:10380000FEF7BCFD054606E0FEF7B8FD401B0228AA
:1038100001D903200AE782486C300068C0F34000F9
:103820000028F1D014E000207F490860FEF7A6FDD3
:10383000054606E0FEF7A2FD401B022801D9032041
:10384000F4E677486C300068C0F340000028F1D1FE
:10385000207800F00400042870D100277048383028
:10386000006800F0805090B900BF002000906C48C4
:103870003830006840F080506949383108600846A7
:10388000006800F08050009000BF00BF012767482B
:10389000006800F48070B0B96448006840F480703B
:1038A00062490860FEF76AFD054606E0FEF766FD20
:1038B000401B022801D90320B8E65C48006800F4E8
:1038C00080700028F2D000BFA068012808D15448B9
:1038D0006830006840F001005149683108601DE01F
:1038E000A06805280DD14E486830006840F00400FB
:1038F0004B49683108600846006840F001000860E4
:103900000CE047486830006820F001004449683105
:1039100008600846006820F00400086000BFA06846
:10392000A8B1FEF72BFD054609E0FEF727FD401B79
:1039300041F28831884202D9032077E626E03848F0
:1039400068300068C0F340000028EED013E0FEF7B6
:1039500015FD054608E0FEF711FD401B41F28831D8
:10396000884201D9032061E62D4868300068C0F321
:1039700040000028EFD1012F07D1294838300068D6
:1039800020F0805026493831086000BFA069002827
:1039900045D02348006800F00C0008285DD0A069DD
:1039A000022845D100201F490866FEF7E7FC0546BE
:1039B00006E0FEF7E3FC401B022801D9032035E6B0
:1039C000174808380068C0F340600028F1D1D4E9F6
:1039D00007010843616A40EA81110122A06AC2EB33
:1039E000500041EA00412C20005D41EA00600C4992
:1039F000091F086001200B490866FEF7BFFC054659
:103A000006E0FEF7BBFC401B022801D903200DE6AF
:103A1000034808380068C0F340600028F1D049E04E
:103A20000838024000004742800E474200700040C4
:103A3000002021490866FEF7A1FC054606E0FEF7D6
:103A40009DFC401B022801D90320EFE51B480068BC
:103A5000C0F340600028F2D12CE0A069012800D119
:103A6000E4E51648001D0668A069012820D006F488
:103A70008001E06981421BD106F03F01206A81424A
:103A800016D147F6C0703040616AB0EB811F0FD18C
:103A900006F440310122A06AC2EB5000B1EB004FA6
:103AA00006D106F070612C20005DB1EB006F01D0F3
:103AB0000120BBE50020B9E5000047420038024084
:103AC00010B504460CB9012010BD606A38B96068B1
:103AD000B0F5827F00D105E00021E16102E0002124
:103AE000216161610021A16294F8510028B9002090
:103AF00084F85000204600F047F8022084F8510076
:103B00002068006820F0400021680860A08800F468
:103B10008270218901F404410843A18901F4006104
:103B20000843217C01F002010843217D01F00101DD
:103B30000843218B01F400710843217F01F0380113
:103B400008432021095D01F080010843218D01F423
:103B500000510843216808600421A06901EA10406F
:103B600094F8241001F0100108432168486020688F
:103B7000C06920F400602168C861002060650120F0
:103B800084F8510000209FE710B586B00446142148
:103B900001A8FCF753FD4B49206888427ED100BF45
:103BA000002000904848006840F480504649086072
:103BB0000846006800F48050009000BF00BF00BFBE
:103BC0000020009040481438006840F002003E4950
:103BD000143908600846006800F00200009000BF39
:103BE00000BF00BF002000900846006840F00100C0
:103BF00008600846006800F00100009000BF00BFA8
:103C000018200190022002900120039003200490CC
:103C10000520059001A92D48FEF7B0FA80200190FB
:103C200002200290012003900320049005200590BB
:103C300001A92748FEF7A2FA2648274908604FF055
:103C4000C0604860002124488160C1604FF48061F9
:103C50000161002141618161C1614FF40031016264
:103C600000214162FEF7F0F908B1FDF777F900BFD6
:103C70001948E064846300BF16484830174908605B
:103C80004FF0C06048604021144881600021C1604D
:103C90004FF4806101610021416100E010E0816129
:103CA000C1614FF40031016200214162FEF7CCF99D
:103CB00008B1FDF753F900BF0848A064846300BF52
:103CC00006B010BD003001404438024000040240FC
:103CD000000002401064024088050020E805002032
:103CE0007047704730B502460B4600BF92F83C0063
:103CF000012801D1022030BD012082F83C0000BF24
:103D0000022082F83D00106844681068816824F041
:103D100070041868044310684460184D1068A84285
:103D20001BD01068B0F1804F17D0154D1068A84215
:103D300013D0144D1068A8420FD0134D1068A8423C
:103D40000BD0124D1068A84207D0114D1068A84240
:103D500003D0104D1068A84205D121F080015868A9
:103D6000014310688160012082F83D0000BF0020FF
:103D700082F83C0000BF00BFBDE70000000001402A
:103D80000004004000080040000C00400004014016
:103D9000004001400018004010B504460CB9012055
:103DA00010BD94F83D0028B9002084F83C0020465E
:103DB00000F026F8022084F83D00211D206802F062
:103DC000F9FB012084F8460000BF84F83E00012181
:103DD0003F200155402001554120015500BF00BF43
:103DE000012084F84200432001554420015545201C
:103DF000015500BF012084F83D000020D0E70000FD
:103E000038B504461949206888420FD100BF002008
:103E100000901748006840F0040015490860084603
:103E2000006800F00400009000BF1DE01149206808
:103E3000884219D100BF002000900D48001D006885
:103E400040F400300A49091D08600846006800F483
:103E50000030009000BF00BF002205211920FEF7AE
:103E600047FB1920FEF734FB38BD00000008004076
:103E70004038024000440140014691F83D000128CD
:103E800001D001207047022081F83D000868C06819
:103E900040F001000B68D8601A4B086898421BD0AC
:103EA0000868B0F1804F17D0174B0868984213D0BC
:103EB000164B086898420FD0154B086898420BD0F3
:103EC000144B0868984207D0134B0868984203D0F7
:103ED000124B086898420CD10868806800F007020D
:103EE000062A0CD00868006840F001000B681860D2
:103EF00005E00868006840F001000B6818600020C9
:103F0000C0E700000000014000040040000800403D
:103F1000000C004000040140004001400018004037
:103F20002DE9F04104460D46002700BF94F83C00FF
:103F3000012802D10220BDE8F081012084F83C0074
:103F400000BF022084F83D002068866826F07706CE
:103F500026F47F46206886602868502833D00CDC21
:103F6000202850D004DC00284BD0102851D149E043
:103F7000302849D040284CD139E060282DD0702815
:103F800007D0B0F5805F03D0B0F5005F41D10DE000
:103F900041E0D5E902136A68206802F077FB2068E7
:103FA000866846F077062068866034E0D5E902131B
:103FB0006A68206802F06AFB2068806840F48040EC
:103FC0002168886027E0EA686968206802F04EFC92
:103FD0005021206802F065FB1DE0EA6869682068EE
:103FE00002F057FC6021206802F05BFB13E0EA68F6
:103FF0006968206802F03AFC4021206802F051FB19
:1040000009E000BF00BF00BF2968206802F049FB3B
:1040100001E0012700BF00BF012084F83D0000BF80
:10402000002084F83C0000BF384684E7704710B594
:10403000044620680069C0F34000D8B12068C06819
:10404000C0F34000B0B16FF00200216808610120A8
:1040500020772068806900F0030018B12046FFF740
:10406000E5FF05E0204600F005F9204600F0B9F92B
:104070000020207720680069C0F38000D8B1206854
:10408000C068C0F38000B0B16FF00400216808611F
:10409000022020772068806900F4407018B1204623
:1040A000FFF7C4FF05E0204600F0E4F8204600F0EA
:1040B00098F90020207720680069C0F3C000D8B1CB
:1040C0002068C068C0F3C000B0B16FF0080021687C
:1040D0000861042020772068C06900F0030018B14F
:1040E0002046FFF7A3FF05E0204600F0C3F8204676
:1040F00000F077F90020207720680069C0F30010F5
:10410000D8B12068C068C0F30010B0B16FF01000E3
:1041100021680861082020772068C06900F4407099
:1041200018B12046FFF782FF05E0204600F0A2F814
:10413000204600F056F9002020772068006900F042
:10414000010058B12068C06800F0010030B16FF084
:10415000010021680861204600F044F920680069E8
:10416000C0F3C01058B12068C068C0F3C01030B1AF
:104170006FF08000216808612046FFF7B1FD2068DC
:104180000069C0F3801058B12068C068C0F3801087
:1041900030B16FF0400021680861204600F02EF930
:1041A00020680069C0F3401058B12068C068C0F3AF
:1041B000401030B16FF02000216808612046FFF701
:1041C00090FD10BD10B586B00446142101A8FCF77F
:1041D00035FA2349206888421ED100BF0020009094
:1041E0002048006840F008001E4908600846006842
:1041F00000F00800009000BF00BF4FF48040019025
:10420000022002900020039004900220059001A952
:104210001548FDF7B3FF21E01449206888421DD1FD
:1042200000BF002000900F48006840F020000D49BA
:1042300008600846006800F02000009000BF00BF42
:10424000402001900220029001200390022004905F
:104250000320059001A90648FDF790FF06B010BDA8
:104260000008004030380240000C02400044014089
:104270000014024070472DE9F04104460D461646F1
:10428000002700BF94F83C00012802D10220BDE8BD
:10429000F081012084F83C0000BF36B1042E1BD011
:1042A000082E31D00C2E5ED145E02946206802F060
:1042B00001FA2068806940F0080021688861206860
:1042C000806920F00400216888612068806929697C
:1042D00008432168886148E02946206802F022FAF4
:1042E0002068806940F400602168886120688069E6
:1042F00020F480602168886120688069296940EA2B
:1043000001202168886130E02946206802F048FADF
:104310002068C06940F008002168C8612068C06951
:1043200020F004002168C8612068C0692969084339
:104330002168C86119E02946206802F06DFA2068FA
:10434000C06940F400602168C8612068C06920F439
:1043500080602168C8612068C069296940EA01203D
:104360002168C86101E0012700BF00BF00BF002035
:1043700084F83C0000BF384689E710B504460CB904
:10438000012010BD94F83D0028B9002084F83C00BD
:10439000204600F025F8022084F83D00211D206809
:1043A00002F008F9012084F8460000BF84F83E00BE
:1043B00001213F200155402001554120015500BFFA
:1043C00000BF012084F842004320015544200155DC
:1043D0004520015500BF012084F83D000020D0E7B2
:1043E0007047704710B5044603492068884201D1E0
:1043F000FDF7CAFF10BD0000000001407047704784
:10440000704700002DE9F84F0446206805682068D1
:10441000C668206847694FF00009CA4605F00F09D1
:10442000B9F1000F0AD105F0200038B106F02000E4
:1044300020B1204602F091FABDE8F88FB9F1000FE3
:104440007CD007F0010018B906F49070002875D0F0
:1044500005F0010030B106F4807018B1206C40F016
:104460000100206405F0040030B107F0010018B12C
:10447000206C40F00200206405F0020030B107F02B
:10448000010018B1206C40F00400206405F0080021
:1044900048B106F0200010B907F0010018B1206CF7
:1044A00040F008002064206C002846D005F0200071
:1044B00028B106F0200010B1204602F04EFA206824
:1044C0004069C0F3801A206C00F0080010B9BAF1FE
:1044D000000F2DD0204602F0FAF92068406900F064
:1044E0004000402820D100BF00BF2168143151E8AE
:1044F000001F21F040002168143141E80002002A29
:10450000F3D100BFA06B50B17548A16B0865A06BDB
:10451000FDF765FC88B1A06B016D88470DE0204672
:10452000FFF76EFF09E009E02046FFF769FF04E0AE
:104530002046FFF765FF002020647DE7206B0128FF
:1045400076D105F01000002872D006F01000002887
:10455000FAD000BF0020009020680068009020681A
:104560004068009000BF00BF2068406900F0400034
:1045700040285ED1A06B006840681FFA80F8B8F14F
:10458000000F54D0A08D404551DDA4F82E80A06BC3
:10459000C069B0F5807F43D000BF00BF21680C31F7
:1045A00051E8001F21F4807021680C3141E80002BD
:1045B000002AF3D100BF00BF00BF2168143151E8C9
:1045C000001F21F001002168143141E80002002A97
:1045D000F3D100BF00BF00BF2168143151E8001FB4
:1045E00021F040002168143141E80002002AF3D193
:1045F00000BF202084F83E000020206300BF00BFE1
:1046000021680C3151E8001F21F0100021680C31A5
:1046100041E80002002AF3D100BFA06BFDF789FB3F
:10462000A08DE28D801A81B22046FFF7E8FE03E7F5
:1046300040E0A08DE18D401A1FFA80F8E08DC0B3F4
:10464000B8F1000F35D000BF00BF21680C3151E830
:10465000001F21F4907021680C3141E80002002A0B
:10466000F3D100BF00BF00BF2168143151E8001F23
:1046700021F001002168143141E80002002AF3D141
:1046800000BF202084F83E000020206300BF00BF50
:1046900021680C3151E8001F21F0100021680C3115
:1046A00041E80002002AF3D100BF41462046FFF74F
:1046B000A6FEC1E605F0800030B106F0800018B11A
:1046C000204602F0DDFAB7E605F0400030B106F012
:1046D000400018B1204602F030F9ADE600BFABE66D
:1046E000BB68000810B504460CB9012010BDA069D4
:1046F00000B100E000BF94F83D0028B9002084F824
:104700003C00204600F028F8242084F83D00206872
:10471000C06820F400502168C860204602F09AF971
:104720002068006920F49040216808612068406991
:1047300020F02A00216848612068C06840F40050D9
:104740002168C86000202064202084F83D0084F89F
:104750003E000020CAE7000010B586B004461421D0
:1047600001A8FBF76BFF6F49206888425BD100BF4F
:10477000002000906C48006840F480206A4908607E
:104780000846006800F48020009000BF00BF00BF12
:104790000020009064481038006840F0040062492E
:1047A000103908600846006800F00400009000BF5F
:1047B00000BF4FF44060019002200290002003905F
:1047C000032004900720059001A95848FDF7D6FC66
:1047D0005748584908604FF000604860002155482C
:1047E0008160C1604FF4806101610021416181619C
:1047F0004FF48071C1614FF4403101620021416288
:10480000FDF722FC08B1FCF7A9FB00BF4948A063F3
:10481000846300BF002205212720FDF769FE2720C1
:10482000FDF756FE7CE044492068884278D100BFFD
:10483000002000903C48001D006840F020003A49EC
:10484000091D08600846006800F02000009000BFC5
:1048500000BF00BF0020009033481038006840F0CF
:1048600040003149103908600846006800F04000F7
:10487000009000BF00BF4FF48440019002200290DE
:1048800000200390032004900820059001A92B48E4
:10489000FDF774FC2A482B49086080054860002118
:1048A00028488160C1604FF480610161002141614D
:1048B00081614FF48071C161002101624162FDF7A5
:1048C000C3FB08B1FCF74AFB00BF1E48A06384632A
:1048D00000BF1B4878301C4908604FF020604860DA
:1048E0004021194881600021C1604FF4806101615D
:1048F000002141618161C16101624162FDF7A4FB58
:1049000008B1FCF72BFB00BF0F486063846300BF56
:10491000002205214720FDF7EBFD4720FDF7D8FDDC
:1049200006B010BD00480040403802400008024078
:104930002860024060070020001401400018024077
:1049400028640240C00700202008002070477047FC
:1049500000BFFEE710B596B0044606F085FAFCF7F6
:104960003DF8FCF761F8FCF791FA1C2216490FA8F4
:10497000FBF710FE00210FA805F0A1FE1349086007
:104980001C2211491C3108A8FBF704FE002108A8CD
:1049900005F095FE0E4908601C220B49383101A82C
:1049A000FBF7F8FD002101A805F089FE0949086020
:1049B0000948006806F070FB0848006806F06CFBC8
:1049C00006F07CFA16B010BD5CC400089000002010
:1049D0009400002098000020040000200000002027
:1049E00030B50B46002100BF16E00A24B4EB107F5F
:1049F00005D9302404EB107403F8114005E041247C
:104A000004EB10740A3C03F81140000100254C002F
:104A1000641C1D554C1CE1B29142E6DB30BD000028
:104A200038B5044608200D4908610420886000203C
:104A3000C860206E48606B4604F16402E06DFCF7CC
:104A40009CFC054607E06B4604F164020349E06DF7
:104A5000FCF793FC0546002DF5D138BD6C7800209D
:104A600013B50446206E20F0F85000F188502066FF
:104A70000021206E61F317202066206E20F0604038
:104A80002066BDF80400C1B26420015504F1600045
:104A9000BDF80410A4F86410022005E0002204F11F
:104AA00064010A54411CC8B20828F7DB2046FFF70E
:104AB000B7FF1CBD13B52DED020B2DED028B044687
:104AC000B0EE408A206E20F0F85000F19050206641
:104AD0002178206E61F317202066206E20F0604060
:104AE0002066022005E0002204F164010A54411C02
:104AF000C8B20828F7DB04F16000BDF81410A4F870
:104B00006410BDF8140047F2050188420DD1BCEED7
:104B1000C80A10EE100A84F86800002184F86910B1
:104B200084F86A1084F86B1010E0B0EE480AFCF7C5
:104B300019FA0948C17884F86810817884F86910F6
:104B4000417884F86A10017884F86B102046FFF7EA
:104B500067FFBDEC028B1FBD8602002010B5044626
:104B6000206E20F0F85000F1407020666178206ED1
:104B700061F3070020662178206E61F3172020661C
:104B8000206E20F060402066002005E0002204F145
:104B900064010A54411CC8B20828F7DB2046FFF71D
:104BA0003FFF10BD70B505467820FBF7E1FB0446DA
:104BB00078212046FBF742FD002020707F206070A6
:104BC000E565204670BD000070B52DED048B0446F0
:104BD0000E461546E66694F86C002178884202D0AD
:104BE000BDEC048B70BDB4F86C00C0F30720617895
:104BF000884200D0F4E7E06EC0F3046030B10228D0
:104C000010D011286CD015280BD1D6E094F86C0088
:104C1000FE2806D101208449087094F86C0083496D
:104C20000870FEE0E06EC0F3815084F82400E06E6E
:104C3000C0F3405152200155E06EC0F300515420A2
:104C40000155E06EC0F3C04153200155E06EC0F342
:104C500080414D200155E06EC0F340414F20015589
:104C6000E06EC0F300415120015569782A7841EA8D
:104C700002201021DFED6E0A9FED6E0A06F086F825
:104C800084ED040AE978AA7841EA02201021F3EEC3
:104C90000E0ABBEE0E0A06F079F884ED050A697972
:104CA0002A7941EA02201021F2EE080ABAEE080A37
:104CB00006F06CF884ED060AE979AA7941EA022047
:104CC00006F006FF41EC190B9FED5B0B53EC102B2C
:104CD00006F016FF41EC180B06F098FDE061A0E02D
:104CE00029786A7841EA02202979554A1170697950
:104CF0005170A9799170E979D17047F21102811A46
:104D0000904239D013DC47F20A02A0EB0201904234
:104D100020D007DCA0F5E041A1F1050181B1012916
:104D200048D111E001291BD0062943D11EE00329F7
:104D300028D005292CD0062930D007293AD133E0D4
:104D4000297984F8241036E03D4991ED000A84ED7C
:104D50000A0A30E03A4991ED000A84ED0B0A2AE094
:104D6000374991ED000A84ED0C0A24E0344991EDB5
:104D7000000A84ED0D0A1EE0314991ED000A84ED30
:104D80000E0A18E02E4991ED000A84ED0F0A12E098
:104D90002B4991ED000A84ED100A0CE0284991EDB1
:104DA000000A84ED110A06E0254991ED000A84ED20
:104DB000120A00E000BF00BF00BF297801F0010225
:104DC0004D210A552978C1F3400255210A55297809
:104DD000C1F3800251210A552978C1F3C0024E2146
:104DE0000A552978C1F3001257210A552978C1F3D1
:104DF000401258210A552978CA1153210A55A97819
:104E00006A7841EA022018B1012250210A5502E0D5
:104E1000002250210A55E97801F0010256210A5575
:104E200000BF00BF00BFDBE6840200208502002037
:104E300000003444000034C49A9999999999B93F73
:104E40008002002010B50446206E20F0F85000F1DA
:104E5000806020662178206E61F317202066206E26
:104E600020F060402066002005E0002204F164018B
:104E70000A54411CC8B20828F7DB2046FFF7D0FDD2
:104E800010BD000010B50F480F49086003204860AE
:104E900000210D488160C1604FF4102101614FF481
:104EA00000114161002101760121417681760021C6
:104EB000C17601774177FCF782FD08B1FCF74EF827
:104EC00010BD000000640040E004002010B50F4851
:104ED0000F4908600320486000210D488160C160CF
:104EE0004FF4102101614FF400114161002101765E
:104EF0000121417681760021C17601774177FCF767
:104F00005EFD08B1FCF72AF810BD00000068004003
:104F10000805002008B500BF002000902248006866
:104F200040F48000204908600846006800F48000D2
:104F3000009000BF00BF00BF00200090084600683E
:104F400040F4001008600846006800F4001000906B
:104F500000BF00BF002205210C20FDF7C9FA0C207C
:104F6000FDF7B6FA002205213820FDF7C1FA3820F6
:104F7000FDF7AEFA002205213920FDF7B9FA3920F4
:104F8000FDF7A6FA002205213B20FDF7B1FA3B20F0
:104F9000FDF79EFA002205214520FDF7A9FA4520DC
:104FA000FDF796FA08BD00003038024000B58FB01A
:104FB0001C220C4908A8FBF7EDFA002108A805F00F
:104FC0007EFB094908601C2206491C3101A8FBF739
:104FD000E1FA002101A805F072FB044908600FB056
:104FE00000BD000024C400080000002004000020D0
:104FF00000B587B0142102A8FBF720FB00BF0020FA
:1050000001905A48006840F002005849086008467C
:10501000006800F00200019000BF00BF00BF002048
:1050200001900846006840F04000086008460068AB
:1050300000F04000019000BF00BF00BF00200190C1
:105040000846006840F0010008600846006800F06B
:105050000100019000BF00BF00BF00200190084682
:10506000006840F0080008600846006800F008008A
:10507000019000BF00BF00BF0020019008460068FB
:1050800040F0040008600846006800F00400019049
:1050900000BF00BF00BF002001900846006840F03C
:1050A000800008600846006800F08000019000BFA2
:1050B00000BF00BF002001900846006840F02000BB
:1050C00008600846006800F02000019000BF00BFA3
:1050D000012289152648FDF74BF9012210212548A8
:1050E000FDF746F9012211462348FDF741F94FF437
:1050F000807002900120039000200490059002A986
:105100001B48FDF73BF8102002900120039004900B
:105110000220059002A91748FDF730F830200290D0
:105120004FF4041003900120049002A91048FDF7E9
:1051300025F801200290039004900220059002A916
:105140000D48FDF71BF8002205210A20FDF7D0F9D4
:105150000A20FDF7BDF9002205211720FDF7C8F947
:105160001720FDF7B5F907B000BD00003038024048
:1051700000080240000002400004024010B50F4841
:105180000F4908604FF48270486000210C4881602C
:10519000C160022101610121416149028161102147
:1051A000C16100210162416281620A21C162FEF790
:1051B00087FC08B1FBF7D2FE10BD000000300140B3
:1051C0003005002000B587B01C216846FBF736FA91
:1051D00016481749086040F24730486000211448DB
:1051E000816040F2CF71C160002101618161FEF7F1
:1051F000D3FD08B1FBF7B2FE0D48FFF7BEF808B1CA
:10520000FBF7ACFE6020009000200190029004901B
:10521000002269460648FFF72EF808B1FBF79EFE0C
:105220000348FEF7CFFF07B000BD00000044014077
:105230009006002000B58DB0002009900A900B90D8
:105240000C90079008901C216846FBF7F7F920485E
:10525000204908600020486000211E48816045F216
:105260000721C160002101618161FEF795FD08B150
:10527000FBF774FE4FF48050099009A91548FEF71A
:105280004FFE08B1FBF76AFE1248FFF776F808B147
:10529000FBF764FE00200790089007A90D48FEF771
:1052A00021FD08B1FBF75AFE60200090002001901C
:1052B00002900490082269460648FEF7DCFF08B118
:1052C000FBF74CFE0348FEF77DFF0DB000BD00006C
:1052D000000800404806002010B50B480B49086044
:1052E0000B484860002109488160C1604FF480612B
:1052F00001610C21416100218161C161FFF7F2F977
:1053000008B1FBF72BFE10BD00480040D806002076
:10531000A086010010B50B480B4908604FF4E1303E
:105320004860002108488160C16001610C21416131
:1053300000218161C161FFF7D5F908B1FBF70EFECD
:1053400010BD0000001401401C07002010B5002211
:105350000D490E4802F047FB08B1FBF7FFFD0C4971
:105360000A4802F075FE08B1FBF7F8FD0949074845
:1053700001F048FF08B1FBF7F1FD044802F06AFFB5
:1053800008B1FBF7EBFD10BDF8000020AC140020C5
:10539000E40100204801002000BFFEE700BFFEE757
:1053A00010B50248FDF7D4FA10BD0000882900208E
:1053B0002DE9F04704460D4626683746D6F840806A
:1053C00007F5306000EB4510D0F808901048804594
:1053D0000BD909F40040B0F5004F06D14FF400415D
:1053E00007F5306000EB451081602046FDF76FFF48
:1053F0000748804508D92069012805D104F2C44234
:105400000121206803F0BCFC0020BDE8F08700000B
:105410000A30544F2DE9F04705460C46D5F8009068
:105420004E46D9F840A006F5306000EB4410D0F8A5
:1054300008802869012855D108F0080008280FD1F4
:10544000434882450BD908F40040B0F5004F7BD1AA
:105450004FF4004106F5306000EB4410816073E0CA
:1054600008F02000202806D1202106F5306000EB4E
:105470004410816068E008F02800002864D13448B6
:1054800082450CD908F40040B0F5004F07D14FF425
:10549000004106F5306000EB4410816054E004EBFD
:1054A000C40105F51F7000EB810706F5306000EBC5
:1054B0004410F9690069C0F31200081A386264B92F
:1054C000B86930B905F2C4420121286803F058FCDC
:1054D00003E0396A386908443861E1B22846FDF7CB
:1054E0009DF831E01B4882451BD108F40040B0F51F
:1054F000004F07D14FF4004106F5306000EB441037
:10550000816021E008F02000202805D1202106F547
:10551000306000EB44108160E1B22846FDF77EF870
:1055200012E06CB904EBC40105F51F7000EB8100BB
:10553000806928B905F2C4420021286803F020FCE4
:10554000E1B22846FDF76AF80020BDE8F0870000C8
:105550000A30544F0A31544F2DE9F84F07460E4692
:10556000D7F80090C84606EBC60107F13C0000EBF7
:105570008104A169206A884202D90120BDE8F88F20
:10558000216AA069451AE068A84200D2E568E81CD3
:105590004FEA900A17E0216AA069451AE068A8421C
:1055A00000D2E568E81C4FEA900A387CABB2F2B250
:1055B00000904846216904F075F82069284420616C
:1055C000206A2844206208F5106000EB46108069CC
:1055D00080B2504506D3A169206A884202D2A069F0
:1055E0000028D8D1216AA06988420ED806F00F01A0
:1055F000012000FA01FB40F6340050F8080020EAD0
:105600000B0040F6340141F808000020B6E710B561
:105610002DED028B0446B0EE408AF0EE608A18EE63
:10562000100AE060B4F8480000F4807010B1204621
:1056300004F07AFD18EE900AA061E06800EE100A0E
:10564000A06900EE900A30EE600A10EE100AE063E6
:10565000E06B00EE100A206C00EE900A30EE600A5B
:1056600010EE100A2063E06B00EE100AB5EEC00ADF
:10567000F1EE10FA03DDE06B00EE100A04E0E06BDF
:1056800000EE100AB1EE400A206D00EE900AB4EE72
:10569000E00AF1EE10FA7DDDE06B00EE100A206802
:1056A00000EE900A20EE200A10EE100A2062E06957
:1056B00000EE100AE06B00EE900A30EE200A10EEC9
:1056C000100AE06194F8480000F0080018B1204684
:1056D00004F08CFC0AE0A06800EE100A206B00EEDB
:1056E000900A20EE200A10EE100AA06294F84800FA
:1056F00000F0200010B12046FBF794FA94F848001F
:1057000000F0020010B1204604F0AAFC606800EE30
:10571000100AE06900EE900A20EE200A10EE100A4E
:10572000606294F8480000F0100010B1204604F0C8
:10573000DDFC94F8480000F0800048B1A06A00EE5B
:10574000100A04F1680004F09BFE10EE100AA0623B
:10575000206A00EE100A606A00EE900A70EE200ADD
:10576000A06A00EE100A30EE800A10EE100AE06225
:1057700094F8480000F0400048B1E06A00EE100ADA
:1057800004F1780004F07CFE10EE100AE06294F858
:10579000480000E006E000F0040030B1204604F0CC
:1057A00082FC02E0204604F0B9FFA0696061E06875
:1057B0002061206B6063E06B2064E06A00EE100AF9
:1057C000BDEC028B10BD70B52DED048B0446B0EE20
:1057D000408AF0EE608AB0EE419A0D469021204654
:1057E000FAF70AFF0020C4F88C0018EE100A2060B7
:1057F00018EE900A606019EE100AA060A564BDEC76
:10580000048B70BD10291CD008DC09293DD2DFE8CB
:1058100001F00F33103C1F3C3C3C1400202920D0E9
:10582000402919D0802923D0B1F5807F2DD127E0E0
:10583000704710EE102AC264FAE710EE102A426692
:10584000F6E710EE102A426510EE902A8265EFE727
:1058500010EE102A4264EBE710EE102AC0F8842004
:10586000E6E710EE102AC26510EE902A0266DFE726
:1058700010EE102A4267DBE710EE102A0265D7E728
:1058800010EE102AC0F88820D2E700BFD0E770B52C
:1058900005460C4605F070FA2878697840EA012040
:1058A000C0F30A0020806878C010A97840EA41104F
:1058B000C0F30A006080A8788011E97840EA81008E
:1058C000297940EA8120C0F30A00A080287940109D
:1058D000697940EAC110C0F30A00E08068790011DC
:1058E0008008A0726879C0F30110E072A879E979A4
:1058F00040EA012000B2A081287A697A40EA0120BA
:1059000001B2E181A87AE97A40EA012001B221825C
:10591000297BA174697BE174A87BE97B40EA0120C3
:10592000A082287C697C40EA012000B22081208886
:10593000A0F5806000B220806088A0F5806000B291
:105940006080A088A0F5806000B2A080E088A0F50B
:10595000806000B2E0802089A0F5806000B22081E4
:10596000B4F90000052105F0FDF92080B4F902002A
:10597000052105F0F7F96080B4F90400052105F070
:10598000F1F9A080B4F90600052105F0EBF9E080FB
:10599000002070BD004870475C78002000487047C8
:1059A000C808002030B50468646944F04004056804
:1059B0006C610468E46844F010040568EC60846B72
:1059C0002468246824F00104856B2D682C6007E0AE
:1059D000846B2468246824F00104856B2D682C6096
:1059E000846B2468246804F00104002CF0D104685E
:1059F000241D856B2D68AC60846B2468E160846B2A
:105A000024682261846B24686360846B2468246842
:105A100044F48024856B2D682C60846B2468246892
:105A200044F00104856B2D682C6030BD38B5044608
:105A30002068006800F0200050B100BF00200090F6
:105A400020680068009020684068009000BF6EE009
:105A50002068006800F01000002868D000BF002017
:105A6000009020680068009020684068009000BFA7
:105A700000BFA06B0068006800F4002058BBA06B5A
:105A80000068006820F00100A16B09680860A06B45
:105A900000684068C0F12400254908802420A16BDB
:105AA00009684860A06B0068006840F40020A16BA2
:105AB00009680860A06B0068006840F00100A16BF5
:105AC000096808601A480088122830D119491A4814
:105AD000FFF7DDFE2BE0A06B0068006820F00100FE
